:10000000002C0020D5290000A9930000C129000080
:10001000C1290000C1290000C12900000000000022
:10002000000000000000000000000000952B000010
:10003000C129000000000000312B0000C129000090
:10004000712D0000712D0000712D0000712D000038
:10005000712D0000712D0000712D0000712D000028
:10006000712D0000712D0000712D0000712D000018
:10007000712D0000712D0000712D0000712D000008
:10008000712D0000712D0000712D0000712D0000F8
:10009000712D0000712D0000712D0000712D0000E8
:1000A000712D0000712D0000712D0000712D0000D8
:1000B000712D0000712D0000712D0000712D0000C8
:1000C000712D0000712D0000712D0000712D0000B8
:1000D000712D0000712D0000712D0000712D0000A8
:1000E000712D0000712D0000712D0000712D000098
:1000F000712D0000712D0000712D0000712D000088
:1001000081F0004102E000BF83F0004330B54FEAC8
:1001100041044FEA430594EA050F08BF90EA020F35
:100120001FBF54EA000C55EA020C7FEA645C7FEAC8
:10013000655C00F0E2804FEA5454D4EB5555B8BFEB
:100140006D420CDD2C4480EA020281EA030382EA5C
:10015000000083EA010180EA020281EA0303362DEE
:1001600088BF30BD11F0004F4FEA01314FF4801CC1
:100170004CEA113102D0404261EB410113F0004FD3
:100180004FEA03334CEA133302D0524263EB43038A
:1001900094EA050F00F0A780A4F10104D5F1200E28
:1001A0000DDB02FA0EFC22FA05F2801841F1000183
:1001B00003FA0EF2801843FA05F359410EE0A5F157
:1001C00020050EF1200E012A03FA0EFC28BF4CF088
:1001D000020C43FA05F3C01851EBE37101F000453E
:1001E00007D54FF0000EDCF1000C7EEB00006EEB4B
:1001F0000101B1F5801F1BD3B1F5001F0CD34908D5
:100200005FEA30004FEA3C0C04F101044FEA44522B
:1002100012F5800F80F09A80BCF1004F08BF5FEAB2
:10022000500C50F1000041EB045141EA050130BD92
:100230005FEA4C0C404141EB0101013C28BFB1F5A4
:10024000801FE9D291F0000F04BF01460020B1FAEF
:1002500081F308BF2033A3F10B03B3F120020CDAC2
:100260000C3208DD02F1140CC2F10C0201FA0CF0A0
:1002700021FA02F10CE002F11402D8BFC2F1200C05
:1002800001FA02F120FA0CFCDCBF41EA0C019040BB
:10029000E41AA2BF01EB0451294330BD6FEA040404
:1002A0001F3C1CDA0C340EDC04F11404C4F12002EF
:1002B00020FA04F001FA02F340EA030021FA04F301
:1002C00045EA030130BDC4F10C04C4F1200220FA58
:1002D00002F001FA04F340EA0300294630BD21FA96
:1002E00004F0294630BD94F0000F83F4801306BF5C
:1002F00081F480110134013D4EE77FEA645C18BF50
:100300007FEA655C29D094EA050F08BF90EA020FE6
:1003100005D054EA000C04BF1946104630BD91EADE
:10032000030F1EBF0021002030BD5FEA545C05D1E1
:100330004000494128BF41F0004130BD14F5800420
:100340003CBF01F5801130BD01F0004545F0FE4194
:1003500041F470014FF0000030BD7FEA645C1ABFC9
:10036000194610467FEA655C1CBF0B46024650EA00
:10037000013406BF52EA033591EA030F41F400212C
:1003800030BD00BF90F0000F04BF0021704730B5B2
:100390004FF4806404F132044FF000054FF0000187
:1003A00050E700BF90F0000F04BF0021704730B548
:1003B0004FF4806404F1320410F0004548BF40421D
:1003C0004FF000013EE700BF42004FEAE2014FEA72
:1003D00031014FEA02701FBF12F07F4393F07F4F4D
:1003E00081F06051704732F07F4208BF704793F050
:1003F0007F4F04BF41F40021704730B54FF4607463
:1004000001F0004521F000411CE700BF50EA010265
:1004100008BF704730B54FF000050AE050EA01020E
:1004200008BF704730B511F0004502D5404261EB7E
:1004300041014FF4806404F132045FEA915C3FF4BF
:10044000D8AE4FF003025FEADC0C18BF03325FEA5C
:10045000DC0C18BF033202EBDC02C2F1200300FA0D
:1004600003FC20FA02F001FA03FE40EA0E0021FA32
:1004700002F11444BDE600BF70B54FF0FF0C4CF420
:10048000E06C1CEA11541DBF1CEA135594EA0C0FD2
:1004900095EA0C0F00F0DEF82C4481EA030621EA0D
:1004A0004C5123EA4C5350EA013518BF52EA033548
:1004B00041F4801143F4801338D0A0FB02CE4FF0FA
:1004C0000005E1FB02E506F00042E0FB03E54FF02A
:1004D0000006E1FB03569CF0000F18BF4EF0010E22
:1004E000A4F1FF04B6F5007F64F5407404D25FEA1E
:1004F0004E0E6D4146EB060642EAC62141EA5551D1
:100500004FEAC52040EA5E504FEACE2EB4F1FD0C12
:1005100088BFBCF5E06F1ED8BEF1004F08BF5FEA90
:10052000500E50F1000041EB045170BD06F0004642
:1005300046EA010140EA020081EA0301B4EB5C04EF
:10054000C2BFD4EB0C0541EA045170BD41F48011E7
:100550004FF0000E013C00F3AB8014F1360FDEBF0C
:10056000002001F0004170BDC4F10004203C35DAE8
:100570000C341BDC04F11404C4F1200500FA05F36B
:1005800020FA04F001FA05F240EA020001F000420C
:1005900021F0004110EBD37021FA04F642EB060182
:1005A0005EEA430E08BF20EAD37070BDC4F10C04AC
:1005B000C4F1200500FA04F320FA05F001FA04F270
:1005C00040EA020001F0004110EBD37041F100015C
:1005D0005EEA430E08BF20EAD37070BDC4F1200567
:1005E00000FA05F24EEA020E20FA04F301FA05F2CF
:1005F00043EA020321FA04F001F0004121FA04F277
:1006000020EA020000EBD3705EEA430E08BF20EA46
:10061000D37070BD94F0000F0FD101F00046400080
:1006200041EB010111F4801F08BF013CF7D041EA02
:10063000060195F0000F18BF704703F00046520006
:1006400043EB030313F4801F08BF013DF7D043EAD7
:100650000603704794EA0C0F0CEA135518BF95EA8D
:100660000C0F0CD050EA410618BF52EA4306D1D114
:1006700081EA030101F000414FF0000070BD50EA33
:10068000410606BF1046194652EA430619D094EABD
:100690000C0F02D150EA013613D195EA0C0F05D1A7
:1006A00052EA03361CBF104619460AD181EA0301FB
:1006B00001F0004141F0FE4141F470014FF00000B3
:1006C00070BD41F0FE4141F4780170BD70B54FF04E
:1006D000FF0C4CF4E06C1CEA11541DBF1CEA1355CE
:1006E00094EA0C0F95EA0C0F00F0A7F8A4EB0504B0
:1006F00081EA030E52EA03354FEA013100F08880A7
:100700004FEA03334FF0805545EA131343EA12636F
:100710004FEA022245EA111545EA10654FEA002624
:100720000EF000419D4208BF964244F1FD0404F5DD
:10073000407402D25B084FEA3202B61A65EB030539
:100740005B084FEA32024FF480104FF4002CB6EBF6
:10075000020E75EB030E22BFB61A754640EA0C0076
:100760005B084FEA3202B6EB020E75EB030E22BFB6
:10077000B61A754640EA5C005B084FEA3202B6EBF7
:10078000020E75EB030E22BFB61A754640EA9C00B6
:100790005B084FEA3202B6EB020E75EB030E22BF86
:1007A000B61A754640EADC0055EA060E18D04FEA44
:1007B000051545EA16754FEA06164FEAC30343EAE4
:1007C00052734FEAC2025FEA1C1CC0D111F4801FB1
:1007D0000BD141EA00014FF000004FF0004CB6E7AA
:1007E00011F4801F04BF01430020B4F1FD0C88BF49
:1007F000BCF5E06F3FF6AFAEB5EB030C04BFB6EB54
:10080000020C5FEA500C50F1000041EB045170BD46
:100810000EF0004E4EEA113114EB5C04C2BFD4EB73
:100820000C0541EA045170BD41F480114FF0000EF7
:10083000013C90E645EA060E8DE60CEA135594EA73
:100840000C0F08BF95EA0C0F3FF43BAF94EA0C0F76
:100850000AD150EA01347FF434AF95EA0C0F7FF4EB
:1008600025AF104619462CE795EA0C0F06D152EA3F
:1008700003353FF4FDAE1046194622E750EA410623
:1008800018BF52EA43067FF4C5AE50EA41047FF434
:100890000DAF52EA43057FF4EBAE12E753B94AB904
:1008A000002908BF00281CBF4FF0FF314FF0FF3078
:1008B00000F00CB8ADF1080C6DE904CE00F008F8BA
:1008C000DDF804E0DDE9022304B07047704700BFA3
:1008D0002DE9F04786468C460846089E1546744624
:1008E0001946002B40F0C2808542B2FA82F245D907
:1008F0004AB1C2F1200300FA02FC2EFA03F395403C
:1009000043EA0C0C94404FEA154EA8B2BCFBFEF82B
:10091000230C0EFB18CC08FB00F943EA0C43994565
:1009200028D9EB1808F1FF3704D2994502D9A8F16C
:1009300002072B44A3EB0903A4B2B3FBFEFC0EFB9E
:100940001C330CFB00F044EA0344A04214D92C19D8
:100950000CF1FF3304D2A04202D9ACF102032C44C3
:10096000241A43EA07401EB1D44000233460736068
:10097000BDE8F0874746DDE76346F1E792BB431BDE
:1009800001214FEA154EAFB2B3FBFEFC200C0EFB6B
:100990001C330CFB07F840EA0343984562D9EB1877
:1009A0000CF1FF3004D2984502D9ACF102002B447F
:1009B000A3EB0803A4B2B3FBFEFC0EFB1C330CFB41
:1009C00007F744EA0344A7424ED92C190CF1FF3330
:1009D00004D2A74202D9ACF102032C44E41B43EA3F
:1009E0000040C0E7C2F1200320FA03F19540904097
:1009F0002EFA03F303434FEA154EAFB2B1FBFEFCF0
:100A00000EFB1C10190C0CFB07F841EA004188454D
:100A100004FA02F422D969180CF1FF3004D2884597
:100A200002D9ACF102002944A1EB08019BB2B1FB51
:100A3000FEFC0EFB1C110CFB07F743EA01439F422F
:100A40000ED9EB180CF1FF3104D29F4202D9ACF160
:100A500002012B44DB1B41EA004192E76046E3E7D9
:100A60006146F7E76046A3E76346B7E7834206D9E6
:100A700016B9002108467BE7C6E900E0F9E7B3FABA
:100A800083F78FB9834201D3724508D8BEEB0204C5
:100A900060EB030301209C461EB9002168E738463D
:100AA000FAE7C6E9004CF8E7C7F1200CBB4022FA90
:100AB0000CF41C432EFA0CF120FA0CF3B84001435D
:100AC0004FEA14490EFA07F5B3FBF9F81FFA84FE52
:100AD00009FB18300B0C08FB0EFA43EA00439A4559
:100AE00002FA07F240D9E31808F1FF3004D29A4520
:100AF00002D9A8F102002344A3EB0A0389B2B3FB95
:100B0000F9F809FB183308FB0EFE41EA03418E4554
:100B10002CD9611808F1FF3304D28E4502D9A8F10F
:100B20000203214443EA0040A0FB0298A1EB0E011E
:100B30004145CE46434602D306D14D4504D2B9EBDA
:100B4000020E68EB04030138002EA6D0B5EB0E02AE
:100B500061EB030101FA0CFC22FA07F34CEA0303F0
:100B6000F940C6E9003198E74046C5E74346D9E772
:100B7000034613F8012B002AFBD1181A01387047DD
:100B80002DE9F04F8BB03E4809F060F810B93D48B0
:100B900006F05AFD3C483D4983681B68984701466A
:100BA00010B13B4807F00BFFDFF8E88032A5D5E92C
:100BB0000045D8F808903A21D9F80C3035489847C4
:100BC000014630B90321D9F8103004AA40469847AD
:100BD000014600290BDA304807F0F1FE2F4807F0F4
:100BE000EEFE00214FF4803006F0E6F8E3E70598CA
:100BF000FFF7D8FB22462B46FFF768FD0646049810
:100C00000F46FFF7CFFB02460B4630463946FFF74B
:100C10007DFA824609988B46FFF7C4FB22462B4695
:100C2000FFF754FD064608980F46FFF7BBFB024648
:100C30000B4630463946FFF769FACDE902010798BD
:100C4000FFF7B0FB22462B46FFF740FD064606980D
:100C50000F46FFF7A7FB02460B4630463946FFF723
:100C600055FA5246CDE900015B460D4807F0A7FE54
:100C7000B4E700BFAFF300800000000080842E4185
:100C800074A50000E4AE0000ECA50000A50C000077
:100C9000F5AE0000D8A500001CAF000085B0000034
:100CA00036AF0000014807F08ABE00BFC8AE0000A2
:100CB0002DE9F04F91B08407009302F004030293F2
:100CC000C2F3C20303F10103DDF868900392054605
:100CD0000E46059340F0BA81041D30B1072909D8AA
:100CE0006FF01B0011B0BDE8F08F01F00706341D56
:100CF000C6F10806009B4FF00008591E4FF0040A89
:100D00004FF0FF330193CDF810804746C34653465A
:100D10000DB1009A22600598002800F3E8809848F9
:100D2000009A824203D397488242C0F0E080039A3F
:100D3000A4EB050E92074FEA9E0000F103810F2FEE
:100D400000F2B180002D00F0058107F140020DEBAB
:100D5000020C019A0CF8200C0CF8102C04980130AD
:100D60000490E7E07A285DD84B280ED8472859D858
:100D700029282DD8252852D054D820287AD0233895
:100D8000D0F1000B4BEB000B74E04C382E2849D807
:100D9000DFE800F070484848484848484848484814
:100DA0004B484848484848484859484B4B59595976
:100DB000704B6D487048184B184848827F4B484824
:100DC0004B487F0000204FF0000B4FF0040A38E042
:100DD0002A38C0B2012202FA00F010EA0E0F49D1FF
:100DE00010F0625C2FD110EA020B43D06046013C48
:100DF0005444B4FBFAF40AFB04F4002D61D0A3EBD5
:100E0000050CA4446645FFF46BAF002868D1042BA1
:100E100047D159F8043B2360043404232AE0019AA3
:100E2000013A01924FF0000B24E011F8010C6C28FC
:100E300034D111F8023C00206C2B8346C5D14FF011
:100E4000080A5346D3E709F1070929F007090734CF
:100E5000F9E802AB24F0070435B106982044B0420B
:100E60003FF63EAFC4E900AB08344FF0000B4FF043
:100E7000080A534611F8010F002878D0BBF1000F83
:100E80007FF470AF2528F5D1019B013301934FF01A
:100E9000010B4FF0040AECE7584694E70020834624
:100EA000A5E7082B02D06FF015001BE709F1070931
:100EB00029F00709F9E80223C4E9002308340823CC
:100EC000D8E768B9042B02D109F10409A4E7082B7B
:100ED000E9D109F1070929F0070909F10809EDE746
:100EE000059A013A059259F8042B009210E7039AEB
:100EF000900720D5A4EB050E4FEA9E004FF0010CA1
:100F0000BEF5007FCFD20F2FCDD8F5B107F140024B
:100F10000DEB020EC0B2019A0EF8200C0EF8102C48
:100F2000BCF1000F3FF41AAF60F07F000EF8200C08
:100F300008F101080137C5F10802043406924FF6A2
:100F4000DA7E97E74FF0000CDAE7BCF1000F01D032
:100F50000136EFE7029802360028EBD10098CDE980
:100F60000631FFF705FEDDE906310644E2E7631BC3
:100F7000B3F5806F97D23DB9A6F10804E018B1E649
:100F8000D0A4000010BA0000029A28609B082B70C1
:100F90009DF81030C2B1EB7085F80280B8F1000FF7
:100FA00005D008A80022C5F1010C97420ED1C5F169
:100FB00001030DF120094FF0000A01930DF1300BF0
:100FC000574512D1601B8DE66B70E5E710F8013BC9
:100FD000190608D504EB0C0E764503F07F03FFF4E9
:100FE0007FAE04F8013B0132DFE7B8F1000F03D018
:100FF00099F90020002A17DB029BD3B11AF80B20C5
:1010000004F8012B0022019B981820448642FFF42B
:1010100067AE99F8000004F8010B0099039220468E
:1010200009F070F9039A14440AF1010A09F101095F
:10103000C6E799F8002055F822300093029B45F846
:1010400022300098FFF794FD421CDCE76FF00D00A2
:1010500048E600BF2DE9F04F95B000AF90F802B020
:10106000BB61BB6F7A62C3F3C00304463B618A462F
:1010700041B9457800780BEB80002044554517D8DE
:10108000A0EB040AE3787B61BBF1000F02D0BB6FD9
:10109000D80716D47B6953BB7B6A1BB1BA6951462A
:1010A00020469847554628465437BD46BDE8F08F40
:1010B000461C3046FFF75CFD013030440AF1010A5E
:1010C000DCE723783B629B00FB603B6A6268FA6165
:1010D00004EB83097B6A002B40F0FE805546C8462E
:1010E00009EB0B0A0026D04551D1D94413E0BB6F60
:1010F0009907D1D523783B6299469B00FB606368D2
:10110000FB617B6A04EB8909002B7AD15546BBF160
:10111000000F4FD15E46BB6F13F0050F7B6909EBE3
:10112000430ABB6F03F002030CBF4FF0020B4FF0FA
:10113000010B7B62D145B6D019F8021B19F8013CAE
:1011400054F82380AA4B984502D3AA4B984538D32C
:101150003B69002B42D0F86907F00AFC00283DD01B
:10116000E8468AB06A46A44B5361FB69C2E906317E
:101170004FF400731384A14B42F8103FA0480023A2
:101180004FF4125100F01EFD023DC546D2E718F89B
:10119000013B54F82300FFF7EBFCFB6F01303BB140
:1011A000D7F880309E423EBFFB6F23F81600013611
:1011B000054498E7BB6F13F004061CBF7E6AD94450
:1011C000A9E73B6923B1F86907F0D2FB0028C7D132
:1011D000BB6FDA0705D4A5EB0B05ABE77B6A002BE9
:1011E000A8D04046FFF7C4FCFB6F43B1D7F880306E
:1011F0009E423FBFFA6F431C22F816300136054469
:1012000098E7BBF1000F6DD0BB6F13F004066CD0F4
:10121000D846002607F140005A46494609F072F8C0
:101220007B695B007B607B69D94409EB4303BB604E
:10123000BB6F03F002033B60BB684B4557D1B96FEE
:101240006378B86F890706EB030254BF4FEA580171
:101250000021C507D2B200F19A8010F0040F14BF2C
:1012600040460020FB616270A070E170BA69F968C5
:101270007B6A20469847051EFFF615AF3B6A237030
:10128000FB6963707B69E3704146BA697B6A84F8E5
:1012900002B007F140009847B0F10008C0F2A48006
:1012A000FB68BA69AAEB0B01C91A7B684846C91AE0
:1012B0007B6A98470028C0F29980A84408EB000593
:1012C0004FF0000B07F1300AB34562D30021BA6931
:1012D0007B6A08469847E6E65E464FF0000807F14D
:1012E000300099E75E46D8469AE7B04698E719F885
:1012F000021B3F4B19F8015C54F82500984202D3B9
:101300003C4B98421DD33B6923B1F86907F030FB91
:10131000002891D13B68FBB908F1280307F12802A6
:1013200008F1010003EB020C07F1500353FA80F0BF
:1013300008F102080CF8101C5FFA88F800F8105C3D
:101340007AE73B692BB1F86907F012FB00287FF4BC
:1013500073AFBB6FDB0709D506F1280307F128023D
:10136000711C9E1806F8205CCEB265E7BB6F58076B
:101370007FF562AF08F1280307F1280208F10101A7
:1013800003EB020808F8105C5FFA81F854E70020CC
:1013900068E71BF80A3087F82F3054F82390FB6F6A
:1013A000FBB133F81B80BA697B6A012107F12F007A
:1013B000984700281ADB0544B8F1000F06D14846CB
:1013C000FFF7D6FB00F101081FFA88F8BA697B6ABB
:1013D000414648469847002808DB05440BF1010BBD
:1013E00072E7D7F87C80DEE745465CE605465AE6BC
:1013F000D0A4000010BA000053AF000004000001A8
:1014000088A70000014B1860704700BF0000002053
:1014100080B505460E461746984605F0E7FC03469C
:1014200009F04CF8DFF81890044649F800304246BD
:1014300030463946A84754F8090001F04BFB00BF7D
:10144000080000002DE9F047058B04462807904668
:1014500011D4022905F0070540F0CD80204607F0A1
:1014600024FB78B10138218B042811D8DFE800F083
:10147000C3106D85950001290CBF45F0100545F09E
:101480002005258388F31188BFF36F8FBDE8F087AF
:1014900001F0070AAA4500F0A6800027B9463E469B
:1014A000A368002B00F0BD8041F00801218388F380
:1014B0001188BFF36F8FA168002900F0BB800D6811
:1014C000002900F0B780D1F8048033465246204608
:1014D000C047002D76D02B6829461D46F0E701F065
:1014E00007035A1F012A1BD8002221F00701062BEF
:1014F000276889B2C4E9002209D13B4603E0628B28
:10150000013262831B68002BF9D141F00201218373
:10151000204607F0CAFA00287BD041F0200177E08E
:10152000042B0AD121F0070189B22183204607F05C
:10153000BCFA10B141F020012183218B01F0070A90
:10154000AA4550D00027B946AAE7236921F0070130
:1015500041F00601062DD3F8009021832DD1B9F179
:10156000000F40D041F00801218388F31188BFF3B8
:101570006F8F3A492046C84729E021F007012369C7
:1015800041F0040189B2042DD3F804902183E6D000
:1015900000273E464FF0040A82E721F00701236945
:1015A00041F0050189B2052DD3F808902183D6D0EA
:1015B00000273E464FF0050A72E700273E464FF0EF
:1015C000060A6DE72B4687E7B9F1000FD1D14FF03E
:1015D0002003EFF3118883F31288BFF36F8F238BFF
:1015E00023F008032383258BEA062ED525F010036C
:1015F000238305F007056669218B002EBFF66FAFC8
:1016000000232768C4E9003321F0070141F00101FC
:101610002183218B01F0070AAA454FF000097FF4CE
:101620003FAF002F9BD041F00801218388F3118840
:10163000BFF36F8F002FC7D03D68394633465246FF
:10164000204607F05EFA2F46F4E7AB067FF51AAFA7
:1016500025F02003238305F00705FFE62F8B00000C
:1016600008B504464FF02002EFF3118382F312888D
:10167000BFF36F8F02F048FF204601F0D5F9034811
:1016800007F09DF901F04EFBFCE700BF07B000003A
:101690002DE9F047DFF85880044607464FF001096E
:1016A00014B93846BDE8F08794FAA4F5B5FA85F583
:1016B00009FA05F32E0108EB05156FEA030A24EA7F
:1016C00003042B7B002BEBD058F806301B694BB979
:1016D0004644042273682846196807EA0A0700F09E
:1016E0005DFADDE7284698470028D9D1F0E700BF2A
:1016F00008A8000030B51049104889B0002208F051
:10170000AFFC0F4D0F4900220023CDE90623002432
:101710000E23CDE90334CDE901440B4B00944FF483
:101720004072284604F09CFD0849284608F0EDFA6E
:10173000204609B030BD00BF51170000480A002004
:10174000C0050020001B0020411A000030B000003E
:10175000014804F0B3BE00BF6C0200202DE9F04741
:1017600080461F480F4607F007FD0646002830D088
:1017700000252846BDE8F087237B73B12368DB682A
:101780000BB12046984723681B69D3B963680422CC
:101790001968204600F002FA013610344C45EBD3AC
:1017A000B8F1000FE5D0002DE2D02846FFF770FF1A
:1017B0000546002FF7D000214FF4A47005F0FCFA85
:1017C000F1E7204698470028E0D00AFA06F31D43C7
:1017D000E2E7044CDFF8109005464FF0010ADDE720
:1017E000700C002008A8000028A80000014B53F846
:1017F00020007047DCAA000008B5034608462BB15C
:10180000044A136000F07EFC002008BD6FF0150054
:10181000FBE700BF0400002010B5044C237813B987
:10182000034804F04BFE0123237010BDB2160020C4
:101830006C02002010B50446084807F09DFC5CB11E
:10184000BFF35B8F064B53E8001F013943E80012DA
:10185000002AF8D1BFF35B8F10BD00BF680C0020D9
:101860006C0C00200020064BBFF35B8F014653E851
:10187000000F43E80012002AF9D1BFF35B8F7047D5
:10188000680C002070B5FFF7EDFF084C084E0546C8
:10189000B44200D370BD63685B792BB123685B6889
:1018A00013B12946204698471034F1E708A80000F4
:1018B00028A8000010B5044C0449204607F0EDFAB2
:1018C000034B1C6010BD00BF94010020C8AA00009B
:1018D000600C0020084A094808B500231370084A24
:1018E0001360084A4FF400411360FFF785FFBDE81D
:1018F0000840FFF7DFBF00BFB3160020759100005E
:10190000680C00206C0C00200146002201480023D6
:1019100007F0E4BA94010020014807F07DBB00BF46
:1019200094010020024B0146186807F0C7BB00BFB6
:10193000600C0020014807F0FDBB00BF94010020AF
:1019400070B5284B187800284BD0FFF7E5FF054607
:1019500090B1BFF35B8F244B53E8001F013943E87C
:101960000012002AF8D1BFF35B8F204C204EB44206
:101970002DD32846FFF7D6FF1E4B1F4C1B68002BAC
:1019800019DD08F06BFB4FF47A72A0FB020302FB37
:101990000131C30BD4E9002043EA41439B1A4FEACB
:1019A000D13140F2E93261EB0001934271F1000163
:1019B00001D3FFF767FFD4E9003213F57A7342F1E0
:1019C0000002C4E90032BDE87040FFF7B3BF6368AE
:1019D0005B7923B1236829461B6820469847103459
:1019E000C5E770BDB21600206C0C002008A80000EE
:1019F00028A80000680C0020400A002070B50D4D9A
:101A0000297861B90120FFF7A9FE0B4C0B4EB442B7
:101A100006D3FFF795FF0028FBD101232B7070BD83
:101A200063685B791BB1236820469B689847103434
:101A3000EDE700BFB316002008A8000028A80000AA
:101A400000212DE9F0470846FFF788FE044658B309
:101A500040F267684FF0000908F030FD1B4B1C4A4C
:101A60001B58136033B11B4B1B68092B02DD1A484E
:101A700004F024FD194FDFF860A0002544B1204692
:101A8000FFF706FE044618B94FF0FF384FF0FF3954
:101A9000FFF756FF064628B9B5B942464B465046B1
:101AA00004F030FD3546E9E74FF0FF384FF0FF39DD
:101AB000D2E72B689B691BB1002211462846984744
:101AC0001035BD42F5D3E8E7054DFAE70800000000
:101AD000640C00206C0C00206C02002028A8000080
:101AE00008A8000013B5184807F046FB174B1B78F1
:101AF0007BB14FF02003EFF3118483F31288BFF31F
:101B00006F8FFFF71DFF84F31188BFF36F8F02B053
:101B100010BD0F4B1B68002BF9D050B900220023D9
:101B2000CDE900230B484FF40042002305F042FBAF
:101B3000EDE70928EBD1074808F09EFA064802B005
:101B4000BDE8104004F0BABC6C0C0020B3160020B5
:101B5000640C0020480A00206C02002010B5064BDF
:101B60001B68044698472146A060044807F034FAF1
:101B7000BDE81040FFF7B6BF04000020940100202C
:101B8000044A054B9B1AB1EBD30F34BF52F8310016
:101B90000020704780A7000008A80000084BC31A67
:101BA00010B41B1144680133237143689A71436870
:101BB0001960436801225A7110BCFFF72DBE00BFA7
:101BC00008A800002DE9F04F8FB004AFC1F34A28F8
:101BD000B8600D4691467B600C0DB8F1000F63D0E4
:101BE000002607F114034FF0040B4FF00A0AC7F860
:101BF0000C80C7E907667E620193CDF808B0CDF886
:101C000000A007F11C03F96832464846FFF722FAA4
:101C1000B0F5006F03461CD36C468AB0D9F80410A7
:101C200004AB2648C3E9050140F2FF71D9611A46A9
:101C30004FF400711984224B42F8103F214833467B
:101C40004FF41251FFF7BEFFA5462C37BD46BDE845
:101C5000F08FC0F30A0804F11700184420F00700C1
:101C600080083B60FFF750FE68F35325044690B1AF
:101C70003B68154AC7E9083600F1100107F1140363
:101C8000F961CDE900A3CDF808B0F96807F11C03AC
:101C90004846FFF7DFF968F353257B68B9682A46A1
:101CA000204607F09FFAD0E704F1170020F0070064
:101CB0008008FFF729FE0446EDE700BF45B00000AD
:101CC00004000001C0A70000B99100002DE9F04F09
:101CD00087B0DDE91269DDE9105A04460F469346E4
:101CE0009846A6B31021CDF8009033465246002006
:101CF000CDF81490FEF7DCFF014605F1170008440B
:101D0000144B039104F007040BF0070BE40020F0E0
:101D1000070003EA412344EA8B1480081C43FFF7C1
:101D2000F3FD44EA0554054640B13EB10399CDF8B0
:101D30000090334652461030FEF7BAFF4346224623
:101D40003946284607B0BDE8F04F07F04BBA314698
:101D5000D3E700BF00FE0F000EB403B503AB01468E
:101D600053F8042B0448019301F082F902B05DF8A6
:101D700004EB03B0704700BFF7920000CA0605D419
:101D80008B064CBF02490349FFF7E6BF704700BF0F
:101D900085B0000084B000002DE9F04F89B09B466B
:101DA0009DF84C300493DDE914930593049B06924F
:101DB000DDE9167604460D46002B00F0878006F01C
:101DC0000803079307F0F6F906F0020A0246002816
:101DD0004BD086492046FFF7BFFF8046BAF1000F7F
:101DE00008D016F0440F42D181492A462046FFF719
:101DF000B3FF804406F001035BB17E4B049A7E4939
:101E000053F822207D4B2046002A08BF1A46FFF7D0
:101E1000A3FF06F00803002B55D0794B049A7949AB
:101E200053F822202046FFF797FF0546069B2BB16B
:101E300075491A462046FFF78FFF0544BBF1000F96
:101E400005D072495A462046FFF786FF05444544AF
:101E5000B9F1000F49D1002F4FD1F30700F1C08035
:101E600031462046FFF78AFFB4E08046B6E7684B6C
:101E700018680028BDD0674B4FF47A7E1B68B5FB0D
:101E8000F3F54FF46162B5FBF0F300FB1355B3FBC0
:101E9000F2FA0EFB05F502FB1A323C21B5FBF0FC11
:101EA000B2FBF1F300FB1C5501FB13220EFB05F501
:101EB0000092B5FBF0F55849CDE901C552462046E0
:101EC000FFF74AFF95E706F00805AFE7BBF1010F02
:101ED00006D1B9F1000F64D1002F7BD000250CE0B2
:101EE000B9F1000FF8D04D485CE04D484D494B46E4
:101EF000224606F00CFD002F68D0DFF82C91DFF8A9
:101F00002CA1102F31462046B84628BF4FF01008AC
:101F1000FFF734FF4FF0000B5D4545DC059B514654
:101F20001A782046FFF718FF4FF0010B1BF0070F40
:101F300003D149462046FFF70FFFD8453BD9059B03
:101F4000514613F80B202046FFF706FF0BF1010B5B
:101F5000BBF1100FEAD1364920464FF0000BFFF7D6
:101F6000FBFE5A46059B9A5CA2F120015F2928BF1F
:101F70002E2230492046FFF7EFFE0BF1010BBBF19B
:101F8000100F1DD01BF0070F03D149462046FFF765
:101F9000E3FED8455A46E5D849462046FFF7DCFE21
:101FA000EBE71F48049DA1E749462046FFF7D4FE12
:101FB0000BF1010BB0E720492046FFF7CDFEC5E746
:101FC000059BB7EB0807434405939AD1049B002B6C
:101FD0007FF443AF204609B0BDE8F04F07F07EB96B
:101FE000064A05492046FFF7B7FE39E78CB00000E6
:101FF00090B00000ECAA00006BB6000087B00000B3
:1020000000AB0000B5B00000BBB00000BFB00000E6
:10201000780C0020740C002099B000002D93000073
:10202000F792000071300000CCB00000C4B0000096
:10203000CEB00000D0B00000CAB000002DE9F041E1
:102040000F884B688E6886B005460C469046C7F3ED
:1020500082175BB1144A9B1A43F3CF01002920DB9E
:102060002078C0F3C200FFF78BFD0346214660884D
:1020700051F8102B0197C2F34A22002A01EB020407
:10208000C0F30B1008BF00210022CDE90408CDE900
:102090000214009231462846FFF77EFE06B0BDE8E6
:1020A000F0810023E2E700BF80A7000073B542F291
:1020B0000F738B4228BF0B4605680F4A0446052163
:1020C000684605F0E1FA63680C495B6806460B2236
:1020D000284607F0F6F863683246694628465B688A
:1020E00007F0EFF8636806495B681B22284607F093
:1020F000E8F802B070BD00BF42B90000EFB00000C8
:10210000D3B00000074A00210123904206D8064AB6
:1021100001B901231360054B1860704740085B004C
:102120000121F2E740420F00740C0020780C0020DF
:10213000014B01221A707047B4160020014B002099
:1021400019607047900C0020024B034801221A705E
:1021500007F0C4B8B516002030AB00000148FFF707
:10216000A5BF00BF30AB000010B5064B18680C4689
:10217000FFF73CFB21460346BDE8104002480F2212
:10218000184700BF900C002030AB000010B9074B7F
:1021900018707047064B1B781BB141F2883007F06E
:1021A00050BDA420002104F007BE00BFB4160020DB
:1021B000B51600202DE9F843DFF874901D4F8046D6
:1021C0000E46042499F8005095B903F0C7FB284641
:1021D0003246414603F074FB054603F0C9FBE5B106
:1021E00001233B7099F8003073B93046BDE8F8839D
:1021F00032464146002003F063FB0546EFE72046E8
:10220000FFF7C4FF651E2C46002003F09DFB00284D
:10221000EBD03B78002BF2D1E7E73B78002BE4D002
:10222000013C2046FFF7B2FF3B78002BCAD1DCE728
:10223000B5160020B4160020F8B5074F0D46044629
:102240004618B44201D12846F8BD14F8011BBB68FA
:1022500001485B689847F4E79CA50000014B0360C8
:102260000020704774AB0000014805F045B800BF7E
:1022700074AB000038B5044618B90F4B0F485B68C3
:1022800098476168B1F5683F10D0B1F5680F0DD07F
:102290000B4DA9420AD011F46861206807D00146AD
:1022A000084807F006FD00232360656038BD14224E
:1022B00008F036F8F9E700BF2401002045B100001E
:1022C0002C5F5CA9B811002008B520B34368B3F5B2
:1022D000683F10D101220368BFF35B8F53E8001FF2
:1022E000002903D143E800200028F7D1BFF35B8F1A
:1022F0000DD1002008BD094A93420AD000684FF072
:10230000FF324FF0FF3304F05FF80028F1D00448AB
:10231000F0E70448EEE76FF4E040EBE72C5F5CA9E0
:10232000E98FFFFFEA8FFFFF08B5D8B14368B3F527
:10233000683F10D100220368BFF35B8F53E8001F92
:10234000012903D143E800200028F7D1BFF35B8FB8
:102350000BD1002008BD074A934208D0006803F063
:10236000F7FFF6E76FF4E040F4E70348F2E70348CD
:10237000F0E700BF2C5F5CA9E98FFFFFEA8FFFFF4A
:1023800010B5044618B91D4B1D485B689847636833
:10239000B3F5683F2FD0B3F5680F2CD0194A93429C
:1023A00019D1236803BB18484FF0FF324FF0FF33B9
:1023B000214603F0E7FE08B923681BB90F4B134809
:1023C0005B68984720681422002107F0A9FF4FF4AA
:1023D0006863636008E0B3F5683F0DD83A2B03D01B
:1023E00040F6BA629342DED1206807F0A9FC636828
:1023F00043F03A03636010BD054AF3E7240100206F
:1024000045B100002C5F5CA9B81100206BB1000041
:102410003A00003A08B5064906484023142207F05E
:102420003AFCBDE808400449044804F0D7BF00BFA7
:10243000B80C0020B81100207CAB000090AB00006D
:102440002DE9F047804600AF0C46002936D0E9461A
:102450008AB0D1E90012A3686D461C482E464FF0A1
:10246000050AC5E90501C5E9072346F810AF184874
:10247000324600234FF42151FFF7A4FBCD46D4E9A7
:1024800003126369AD461348C5F810A0C5E90501FC
:10249000C5E907230E48002332464FF42151FFF7C8
:1024A00091FBCD46E3690C4A0948012106F0F3FE91
:1024B000A3690A4A0648012106F0EDFE214640467E
:1024C00003F0DAFCBD46BDE8F08700BF98B100001C
:1024D000E8A70000C7B10000F6B1000005B2000097
:1024E00030BFFFF7FDBF00BF114B124A2DE9F0418D
:1024F000D518DFF84480013DB5FBF3F55D430F4B84
:1025000008EB0304013CB4FBF3F403FB04540E1B7F
:1025100007460B49304607F0F5FE70194246002188
:10252000083E07F0FDFE3E6704F10800BDE8F081BB
:102530000100000000000000040000000400000092
:1025400028A80000044B99685869884203D00349C1
:102550004FF080520A607047A014002004ED00E0A4
:1025600070B5294C06460D462848294906F023FF38
:10257000A36AD9043CD52548264906F01CFF17203C
:10258000A36A1A0504D52148234906F014FF182030
:102590001D4CA36A9B0512D51C48204906F00BFF71
:1025A000A36BA26A100409D51D4A1848012106F040
:1025B00072FE1EB1A36A23F40043A3621920124CD9
:1025C000A36A590504D51148164906F0F4FE1A20ED
:1025D000A36ADA050ED50D48134906F0ECFE1B2060
:1025E000094A936A43F47F43936200232B7070BDC2
:1025F0001620C5E7A36A9B04F2D504480B4906F0F0
:10260000DAFE1C20ECE700BF00ED00E0E8A70000C8
:1026100033B2000049B200005AB200006DB20000AF
:1026200086B200009BB20000B6B20000CEB200003D
:1026300010B5204C2049214806F0BDFEA36A99013F
:1026400036D51E481E4906F0B6FE1E20A36ADA01E2
:1026500004D51A481B4906F0AEFE1F20154CA36A8C
:102660001B0304D51548184906F0A5FE2120A36ACE
:10267000590304D51148154906F09DFE22200D4C42
:10268000A36A9A0304D50D48114906F094FE23204D
:10269000A36ADB0304D509480E4906F08CFE24200A
:1026A000044A936A6FEA03436FEA1343936210BDCF
:1026B0001D20CBE700ED00E0FDB20000E8A7000020
:1026C00015B3000028B3000042B3000060B300005F
:1026D00085B300009FB300002DE9F843364D8046D6
:1026E000894636483649174606F065FEAB6ADE066F
:1026F00027D53449314806F05EFE1124AB6A1D0728
:1027000004D531492D4806F056FE12242A4DAB6AF5
:10271000980718D52D49294806F04DFE6E6BAB6A17
:10272000190646D52A4A25483346012106F0B3FD4D
:10273000B9F1000F03D0AB6A23F08003AB6213241E
:1027400003E01024DAE76FF015061B4DAB6ADA07D9
:1027500004D52049194806F02EFE1424AB6A9B06C6
:1027600004D51D49154806F026FE1524124B9A6A19
:10277000D50602D49A6A90070AD55B68190507D571
:102780004146304600F096FA10B180F309880224E1
:10279000094B9A6A920642BF5A6A22F400525A6260
:1027A0009A6A42F0FF029A6200233B702046BDE81D
:1027B000F8836FF01506C2E700ED00E0E8A700001F
:1027C000CAB30000E0B300005AB2000013B4000026
:1027D0002BB4000041B40000CEB200002DE9F0415E
:1027E000664B8AB0D3F8048000AF0446C8F30805EE
:1027F000002686F31188BFF36F8F02F07F43B3F199
:102800007F4F07D102F00C03082B12D15C495D48C1
:1028100006F0D1FD002634460023FB71EB1E092B88
:1028200000F28A80DFE803F00A80837D8888888848
:10283000888610074CBF0C460126EDE752495148E7
:102840004E4D06F0B8FD0023FB71EB6A9A0705D5E3
:102850004E494C4806F0AFFD002333E0EB6A002BF5
:1028600001DA4B49F5E7EB6A5B00F5D54949454884
:1028700006F0A1FD6B69A26943F480736B61BFF33D
:102880004F8FBFF36F8F6B6932F8022C23F4807384
:102890006B61BFF34F8FBFF36F8F4DF602739A4298
:1028A00009D0AB6ADBB27BB3FA1D01212046FFF7EA
:1028B00013FF034606E02368374A3248012106F039
:1028C000EAFC2368FA79DAB907F1080504F1200C6B
:1028D000206861682A4603C2083464451546F7D16A
:1028E0007A6A002E44D0C2F3080121B96FEA52225D
:1028F0006FEA42227A6207F108011846FFF7A0FD4D
:102900002837BD46BDE8F081AB6A13F47F4F04D091
:10291000F91D0120FFF724FECBE7AB6AB3F5803F3A
:102920009AD3FFF785FEC4E7FA1D0021BEE7F91D23
:102930000020EFE719498CE7194A1A4B18F4F87F81
:10294000E8468AB018BF13466A461749C2E905131C
:102950004FF400731384103D144BD56142F8103FBF
:10296000084800234FF41151FFF72CF9C54673E7CF
:1029700022F4FF7222F00102BCE700BF00ED00E08C
:102980008EB40000E8A70000B9B40000D0B4000085
:10299000F1B40000FFB400001EB500003AB500001D
:1029A00075B4000060B400005EB5000004000001D2
:1029B000024A536943F010035361704700ED00E091
:1029C000EFF30880EFF3098101B57246FFF706FFC8
:1029D00001BD00BF002080F31488BFF36F8F00F0AB
:1029E00087FB00200D490860BFF34F8F0C4880F330
:1029F000088800F03DF8202080F3118809484FF442
:102A00000461401880F30988EFF314800221084321
:102A100080F31488BFF36F8F00F014F994ED00E099
:102A2000002C0020401E0020BFF34F8F0549064BAD
:102A3000CA6802F4E0621343CB60BFF34F8F00BF5C
:102A4000FDE700BF00ED00E00400FA050749D1F8FA
:102A500090200023C2F307221846934200DB704700
:102A6000C1F89830C1F8A0000133F6E700ED00E0AE
:102A700008B572B6002383F31388FFF7E7FF144B02
:102A80004FF0FF32C3F88020C3F88420C3F88820B9
:102A9000C3F88C20C3F89020C3F89420C3F8982082
:102AA000C3F89C20C3F88021C3F88421C3F888218F
:102AB000C3F88C21C3F89021C3F89421C3F898215E
:102AC000C3F89C2162B6BFF34F8FBFF36F8F08BD71
:102AD00000E100E0084B9B6883420BD1EFF30583D4
:102AE00043B1064B5A6842F080525A605A6A22F447
:102AF00000425A6207F054BAA014002000ED00E032
:102B0000094A93686FF00A019967084958674B684A
:102B100043F080534B60002383F31188BFF36F8F22
:102B20009368986F704700BFA014002000ED00E08C
:102B300015498A684FF030001044EFF3098C80E8A3
:102B4000F01F202080F31288BFF36F8F0F4F4FF0DC
:102B500000664A698A603E604FF07004141920686C
:102B60000B4C2060506F0023536780F3118804B52D
:102B7000104600F01DF9BDE8044002F1300090E875
:102B8000F01F8CF309887047A014002004ED00E0CA
:102B9000D41100201EF0040F0CBFEFF30880EFF3F8
:102BA0000980816911F8021C0229FFD001B506F0E5
:102BB000F7FB01BD40B2002807DB044A41090123AD
:102BC00000F01F00834042F82130704700E100E030
:102BD00040B200280CDB4309064900F01F002033F7
:102BE0000122824041F82320BFF34F8FBFF36F8F44
:102BF000704700BF00E100E0054B420900F01F00F4
:102C000053F82220012303FA00F01040704700BF60
:102C100000E100E040B20028A8BF00F1604001F1EF
:102C20000101B8BF064B4FEA4111ACBF00F561404E
:102C300000F00F00C9B2B4BF195480F800137047F8
:102C400014ED00E00B4A08B50B4B22F07F029A60AE
:102C5000BFF34F8FBFF36F8FD3F8882022F4700239
:102C6000C3F8882003F0BAF904F0D8F800F074F83B
:102C700003F006FA0000000000ED00E042F8203CFE
:102C8000009B42F81C3C0A49019B42F8183C029BFD
:102C900042F8143C21F001014FF0807342F8043CEB
:102CA00042F8081C0023203A02654367704700BFC2
:102CB00011140000094A0346906870B113F1160F11
:102CC000006E05D0A0F140029A4205D8834203D29B
:102CD000814228BF0020704700207047A0140020C8
:102CE00008B514460A4A0B4B9060026F1A600D46F5
:102CF00000F05EF8204685F30988002163B681F371
:102D00001188BFF36F8F00220023FEF781FB00BF05
:102D1000A0140020D4110020014910220A6070473D
:102D200010ED00E072B6404080F31188BFF36F8F62
:102D3000BFF34F8F30BF62B6BFF36F8F704700BFD6
:102D400072B6494081F31188BFF34F8F20BF80F3E3
:102D5000118862B6704700BF044800232021C218C2
:102D60000133302B82F80013F9D1704700E100E005
:102D700001B5EFF30580A0F110004FEAC00004494F
:102D8000014409C99847BDE80140024908470000CD
:102D900000A6000045250000024B034A034801211C
:102DA00000F084B80000042000000020A0AB000068
:102DB000026E054B403A1A60044A4021C3E90112F1
:102DC0001846012100F07CB8D811002000000B1536
:102DD000072808B5034607D90C480D4A012106F01B
:102DE0005AFA6FF0150008BD0A48C0F898300A6812
:102DF00022F01F021A4342F01002C0F89C208A6899
:102E000042F00102C0F8A0201846ECE7E0A700005D
:102E100075B5000000ED00E0F0B50E4685B01F4628
:102E200004460025B5420DDA606810B397B1431E21
:102E300018420AD0104A11482B46012106F02BFAFD
:102E40006FF01502104605B0F0BD1F28F2D92168B9
:102E50000B42EFD12368019306F0B5FAA36801A9EC
:102E60000343D0B20393FFF7B3FF10F1160FE7D07F
:102E7000421C01350C34D5E79BB50000E0A70000EB
:102E8000044B0522C3F89420BFF34F8FBFF36F8F1D
:102E9000704700BF00ED00E0BFF35F8F024B0022E0
:102EA000C3F89420704700BF00ED00E010B5034C5C
:102EB00001232278FFF7B0FF207010BDC716002055
:102EC00008B5094A00231278FFF7A6FF10F1160F84
:102ED00003D0064B0022072800DD08BDC3F8980088
:102EE000C3F8A0200130F6E7C716002000ED00E08F
:102EF000F0B54F490868082885B000F29680FFF7C2
:102F0000CBFF4C4C49680022904201F10C010DD1DD
:102F1000494D4A4F28706846FFF7A0F9002406463D
:102F2000A64216D1FFF7ACFF00202DE0C4F8982090
:102F300051F80C3C23F01F03134343F01003C4F873
:102F40009C3051F8043C43F00103C4F8A030013236
:102F5000DAE7009800EB04114FEA041CCB683B4011
:102F6000B3F5000F4FD011D8B3F5001F35D0B3F52E
:102F7000800F3DD0B3F5801F17D0314A3148012171
:102F800006F080F96FF0150005B0F0BDB3F1807F59
:102F900042D0B3F1007FF0D150F80C3088684A6815
:102FA00006F011FA40F4802009E050F80C308868EF
:102FB0004A6806F008FA40F0885040F43020039048
:102FC00001A92878CDE90123FFF702FF0028D9DB0A
:102FD0002B7801332B700134A2E750F80C3088684D
:102FE0004A6806F0F0F940F0885040F40020E6E727
:102FF00050F80C3088684A6806F0E5F940F0E06067
:1030000040F40030DBE750F80C3088684A6806F07E
:10301000DAF940F08270D2E750F80C3088684A68DC
:1030200006F0D1F940F08870C9E74FF0FF30ABE708
:10303000ACAB000000ED00E0C71600200000F0FF80
:10304000BEB50000E0A7000008B5024B1B6898471A
:10305000002008BDE4110020034B044A1860937857
:1030600043F0020393707047E41100203000002009
:10307000F0B587B007460E46144600211022684678
:103080001D4607F04DF902238DF802302A46054B04
:10309000019321466846CDE9047604F0BDFB07B0F4
:1030A000F0BD00BFE793000008B50649064821F0CF
:1030B0000701C1F1005202F5802205F0B9FC0020A1
:1030C00008BD00BF87300020E8110020024B01221C
:1030D000C3F840250020704700E0014020B1034BB9
:1030E000800143F001031847704700BF30A800007B
:1030F00001F04CBA084B70B5C31A0D4607499B1036
:10310000044659430648402206F094F92B460146EE
:103110002046BDE87040184708120020B76DDBB6A6
:1031200060A5000073B50C4C0C4A4023041B0093AF
:103130000D460B460A49A41061430646094806F0AD
:10314000A5F9011E05DA30462B4602B0BDE87040F5
:10315000184702B070BD00BF08120020F7940000AD
:10316000B76DDBB660A5000010B54FF02003EFF39C
:10317000118483F31288BFF36F8F074A136823F01B
:103180000201DB07116002D4012006F0C1FA84F3CA
:103190001188BFF36F8F10BD58120020002270B548
:1031A000012104461046FFF735FD114801F078FB78
:1031B000104B984218D1206900F09CF901F082FB75
:1031C00026690D49304605F0C0FC00280BDB0125BF
:1031D00035642469084904F11C0005F0B6FC002898
:1031E00001DBE564002070BD6FF00400FBE700BF69
:1031F000313200000000AD0BD0AB000070B50146CD
:103200000C2309484B43C418D4E90E56403300221E
:103210001844A26306F0FBF82DB132462B46034852
:10322000BDE87040184770BD0812002060A500007E
:10323000012810B504460AD004280CD078B9084BF0
:103240001B6C5B070BD1BDE81040FFF7D7BF00F048
:103250005FF92046F7E7BDE8104000F067B910BD00
:103260000812002008B54FF02003EFF3118183F31B
:103270001288BFF36F8F124A136843F00200106088
:10328000DA0708D481F31188BFF36F8F0120BDE8FE
:10329000084001F029BB4FF08043D3F80C24D3F849
:1032A0000C34DB07EED5074806F0B1F881F311883E
:1032B000BFF36F8F0020BDE80840FFF79FBF00BF3E
:1032C00058120020481200201FB500220123CDE92A
:1032D0000223094ACDF800D06B46CDF804D006F0A1
:1032E00003F9002805DB4FF480420023684603F011
:1032F00009F905B05DF804FB0F950000024AC3B25E
:103300001C2003FB0020704708120020F8B5284954
:10331000BFF35B8F0646012251E8003F41E80020E1
:103320000028F9D1BFF35B8F33B9224922484B60A3
:10333000CB608A6005F01CFC731E012B1DD806F0C3
:10334000DEFC0446D0B91D4B1B78BBB14FF0804367
:103350000222C3F8082305464FF08047D7F8182407
:10336000D7F81834D20313D59B0701D0012E0FD103
:10337000C4B185F31188BFF36F8FF8BD4FF0200300
:10338000EFF3118583F31288BFF36F8F0124E3E716
:103390001CB12846FFF7D4FCE0E70021212003F010
:1033A0000BFDDBE74FF080430222C3F80423E4E780
:1033B00004120020F411002024120020DB1A002047
:1033C0000D4BBFF35B8F012253E8001F002903D18F
:1033D00043E800200028F7D1BFF35B8F0AD10749EB
:1033E0000023CB60064B4B6003238B60054B1868B2
:1033F00005F0BEBB704700BF7812002060120020AD
:10340000C93400005C12002007B500220023CDE97A
:10341000002308484FF40032002303F0CBFE064B94
:10342000186805F0FDFB054B00221A6003B05DF83B
:1034300004FB00BFD00100205C12002078120020A5
:10344000F7B51C4E1C4CB7681C4DFB683A21304642
:10345000984740B1002323702B8001F097FA012395
:10346000237003B0F0BD0C213B696A463046984793
:103470000028EFD1124A019B93FBF2F3009A2178C6
:1034800003EB82031BB2B5F900200029E4D09A1A9D
:10349000002AB8BF524212B2012ADDDC094A136881
:1034A000013901332170136003B0BDE8F040FFF72C
:1034B000ABBF00BFC4A50000C8160020B016002096
:1034C00090D003007012002008B5074806F0BEFB3C
:1034D00028B901F05BFA054B01221A7008BDBDE85E
:1034E0000840034803F04AB9C4A50000C8160020EC
:1034F00040000020034B044A186000231360034A75
:10350000136070475C1200207412002070120020BB
:10351000024B00221A70FFF753BF00BFC8160020ED
:10352000014806F0A9BD00BFD0010020024A13687F
:1035300001331360FFF768BF7412002008B5074815
:1035400006F084FB38B10648FFF786FD0448FDF716
:1035500059FF002008BD6FF01200FBE79CA500009A
:10356000653500000A2838B5074D044604D1AB681C
:103570000D215B6828469847AB6803485B68E1B259
:103580009847204638BD00BF9CA50000F0B54068B4
:10359000057B01F01F0444EA4514056987B0002D3E
:1035A00064D0B2F5001F00F1100506D1214628466F
:1035B00006F02EF9002007B0F0BD01AE0027B2F5ED
:1035C000800F0197776039D1B3F1007F14BF0523D5
:1035D00004238DF804300023CDE90463039383684A
:1035E00023FA01F111F001011AD1B2F1A07F17D134
:1035F00004F01F03620903F5E0732AD0012A3BD1CE
:103600001F4A52F82330DB070AD40DF10306324675
:103610002146284601F08CFC1A4B98421CD0029699
:1036200003AA2146284601F045FB174B984220D1BA
:1036300001222146284601F0E3FCBBE7B3F1C06F4D
:1036400005D0B3F1007F14BF01230223C1E7032398
:10365000BFE74FF0A042D4E73146284601F0CAFC4C
:10366000094B9842DBD06FF00B00A4E76FF08500A8
:10367000A1E76FF015009EE751F82330FFDE00BF91
:10368000000300500400AD0B0000AD0B38B54568D9
:103690002B69B3B11035284601F09CFC044680B973
:1036A0000146284601F05EFC084B98420BD10849C0
:1036B0002246284601F036FC224605210620FFF767
:1036C000A9FA002038BD6FF00400FBE70000AD0B45
:1036D000D5360000420970B5034602D0012A17D042
:1036E00070BD0D4E326951680029F9D003F01F03F7
:1036F00001250C689D400029F2D08A682A4002D03A
:103700004B68304698472CB1236821461C46F2E7A7
:10371000024EE7E72346F8E788A5000074A50000FD
:103720002DE9F043466840F20635D006337B87B07A
:1037300002EA050554BFC2F34010032001F01F0741
:10374000B5F5837F144647EA43178DF8030044D04C
:103750000FD8062D18D007D8B5B1022D3FD06FF085
:10376000150007B0BDE8F083B5F5807FF7D10125DE
:103770000AE040F20222954233D0B5F5407F32D0C4
:10378000B5F5007FEBD1022522032ED57268012307
:103790008B40C2F80835326992BB07F01F037F09DE
:1037A0002BD0012F79D13F4A02EB830284F480337E
:1037B000D2F80017C3F30043C4F3404444EA43047F
:1037C00021F4E16144EA800421F0070144EA052381
:1037D0000B43C2F800370020C3E70725D4E70425D0
:1037E000D2E70525D0E70325CEE7630341BF0123D8
:1037F00072688B40C2F80C35CDE74FF0A042D3E79A
:1038000010360DF102023946304601F091FB14F4F6
:10381000403F80460CD13946304605F0F7FF224B39
:103820009845D8D19DF80210304601F0DDFBD2E773
:1038300001AB4FF0000903AA39463046CDE90439FF
:10384000CDE90199CDF80C9001F034FA164B98426D
:1038500085D114F4003315D09DF803308DF80E3067
:1038600084F48034C4F300444B4603AA39463046FE
:103870008DF80C508DF80D4001F0D6FA0A4B9842A5
:10388000CDD06CE7CDE9043303AA0DF1030339462B
:103890003046039301F00EFAF0E703F5E07352F8B7
:1038A0002330FFDE000300500000AD0B08B5436875
:1038B0001B68D3F80805D3F80C1501F063FF034B20
:1038C000984214BF6FF00F00002008BD0000AD0B40
:1038D00008B5CA07436800690AD4C1F34202012A45
:1038E00009D0022A0FD00A4A0A48012105F0CAFC71
:1038F0006FF0150006E01B684FF0CC72C3F824256A
:103900004162002008BD1B684FF0CD62F6E700BFA2
:103910003CB60000B0A70000B0B5044682B000225B
:1039200000AF01210320FFF775F963689D693A1D17
:103930000021284605F04DFE002827DB7B682A6819
:103940001979186800F0DCF800281FDB606823692B
:10395000114A00F1080101F0BBFD104B984218D04C
:1039600023686C4688B06A460D49C2E905134FF4D6
:10397000007393830B4B42F8103F0B4800234FF426
:10398000E251FEF71FF96FF00F00A5460837BD465C
:10399000B0BD0020FAE700BFAD3900000000AD0B5C
:1039A0004EB6000003000001B0A700000378012B11
:1039B00008D0022B08D04BB9054B0B6201F1100067
:1039C00002F07CBD034BF8E7034BF6E7034BF4E74B
:1039D0000000AD0B0100AE0B0200AE0B0100AD0B01
:1039E0002DE9F04F8BB005460C4691460193476890
:1039F00006694FF0FF324FF0FF33304602F082FD90
:103A000006F1100A00220023504602F07BFD3846E2
:103A100001F0A2FDDFF8C0B04FF00008C14501D8A9
:103A200000242EE0237A039313F008014DD11222D3
:103A30000DF11600029106F073FC039B606801997A
:103A4000069003F0010220688DF8151013F0020FA4
:103A500002998DF8142008901DD109F1FF334345D8
:103A600002D9237D5B0718D57ABB202205A93846E9
:103A700001F09EFD584512D0184B984228D06FF0A7
:103A80000404384601F078FD304602F017FD204668
:103A90000BB0BDE8F08F0A46E8E74022E6E74FF4B6
:103AA00080420023504602F02DFD30B1384601F02F
:103AB00063FD2846FFF7FAFEE1E7336A5B4504F150
:103AC0000C04DCD108F10108A8E76FF08504D8E701
:103AD0006FF00F04D5E700BF0000AD0B0B00AD0B7E
:103AE000036803F01F025B09026004D0012B034846
:103AF00018BF002070474FF0A040704700030050EF
:103B00002DE9F04FDFF89881DFF8989185B01546E0
:103B1000824600EB8101514503D1002005B0BDE88C
:103B2000F08FDAF80030D804C3F3432203F07F04A7
:103B300000F1AF807F2C4FEA134318F8027008BFE2
:103B40004FF0FF34222B00F2A780DFE803F01222AF
:103B500028432B3243A5A5A5A54672A5A5A5A5A5D5
:103B6000A5A5A5A575808386A5A5A5899194979AF5
:103B70009D00C5F80C45601C18D003A80394FFF7FE
:103B8000AFFF039B012606FA03F3C0F80835B346DE
:103B90002CE0C5F81445631C08D00026F7E7C5F8EB
:103BA0000845E8E7621CC5F8084570D10AF1040A27
:103BB000B1E7631CC5F80C45F8D0012603A80394AF
:103BC000FFF78EFF039B4FF0010B0BFA03F3C0F8D6
:103BD0000C350BE0C5F81045DDE7C5F80845002FAA
:103BE000D9D1671CE2D00026B3460627DAF80030A8
:103BF000019303F40052002A03A81CBF4FF0000BEE
:103C000001260394FFF76CFF039A019B00EB8200EF
:103C1000C3F3C114D0F800273B0243EA840343EA0C
:103C20000B0302EA0902134343EA4603C0F80037D4
:103C3000BCE7C5F80C45D2E7C5F86045661CDAF864
:103C40000030B3D0C3F38033002BB6D095E7C5F86E
:103C50006445F3E7C5F86845F0E7C5F86C45EDE75E
:103C6000C5F82445621CA1D04FF0000B0126BDE72A
:103C7000C5F828457FE7C5F83045F3E7C5F8344572
:103C8000F0E7C5F83845EDE7C5F83C45EAE700261A
:103C900094E76FF0150041E76FF085003EE700BF45
:103CA00088B60000F0F8FCFF014B01221A60704753
:103CB00000C000400C2903690BD15B6A0649074824
:103CC0004B4393FBF0F100FB113311605360002074
:103CD00070476FF08500704790D0030040420F009E
:103CE000044B00690022C3F80021D3F8003102F030
:103CF000E5BB00BF00C000407FB50569AB6A63B398
:103D00003A2901D00C292BD105F110064FF0FF32D2
:103D10004FF0FF33304602F057FB134B0193A86A74
:103D20000323002469460394029304F021FF4FF01B
:103D3000FF324FF0FF33284602F0E4FBA86A04F09C
:103D40006FFF0A4BD3F808256A6201225A60304699
:103D500002F0FEFA204604B070BD6FF00A00FAE7E8
:103D60006FF08500F7E700BFA93C000000C00040ED
:103D700010B504690020FFF7C1FAA0624FF0FF32CE
:103D80000021204605F0E3FF04F1100005F0D8FF04
:103D9000002201210C20FEF73DFF0C20FEF70AFF58
:103DA000024B0122C3F80423002010BD00C00040D4
:103DB0002DE9F7430646002201210220FEF72AFFE3
:103DC0000220FEF7F7FE776835693C684FF000087F
:103DD000C4F800852E60D7F80C9001AA41464846E9
:103DE00005F0F7FB002837DB019BD9F80020197993
:103DF0001868FFF785FE00282EDB6B7A3169012BEE
:103E000003D0032B26D14FF01008AB7A032B21D11E
:103E100095F80BC0BCF1000F02D0BCF1010F19D115
:103E20002A7A12B1022A15D10E226B687068B3F596
:103E3000164F00687BD02DD8B3F5165F7AD016D810
:103E4000B3F5966F78D00AD8B3F5967F77D0B3F5EF
:103E5000167F77D06FF0850003B0BDE8F083B3F52F
:103E6000166F72D0B3F5965FF4D15C4B3EE0B3F5BC
:103E7000E14F6DD007D8B3F5615F6BD0B3F5964FC6
:103E8000E8D1574B32E047F6122E7345E2D14FF49A
:103E900000032BE0B3F5613F5ED013D8B3F5963F36
:103EA0005DD009D84DF6C02E73455AD0B3F5614F99
:103EB000D0D14FF46B0319E0B3F5E13FCAD14FF015
:103EC000EB7313E0B3F5612F4ED009D8DFF814E19E
:103ED00073454CD0B3F5E12FBCD14FF0E86305E05A
:103EE000DFF804E17345B5D14FF08053C0F82435B5
:103EF000736848EA0C081B6842EA0802C3F86C259C
:103F00000B1DD5E9010183E803007B6899073DD5C6
:103F100005F1180001F0A0F9344B98422AD034483A
:103F2000344A012105F0AEF96FF0040094E74FF434
:103F30001D03DBE7304BD9E74FF49E23D6E74FF460
:103F4000A033D3E74FF41C33D0E74FF41D23CDE764
:103F50002A4BCBE72A4BC9E74FF06C73C6E7294BD6
:103F6000C4E74FF46503C1E74FF07063BEE74FF05D
:103F70008063BBE7287E04F10C0204F5907105F024
:103F8000BDFB2B7E0120984000F022FC0823C4F8E2
:103F900000353B7A53B9C4F81031D4F810316B694D
:103FA000C4F834350123C4F8383523607B689A0798
:103FB0005CBF4FF48073C4F804337B68DB0644BFF6
:103FC0004FF48003C4F804332B69C4F8443500204F
:103FD0000123C4F84805A360E3603DE700B0130087
:103FE00000A04E0090D0030040420F000000AD0B37
:103FF00000A80000A8B600000050270000C075000F
:1040000000F03A0000903A01F8B5044607690D4601
:1040100005F075FEB0B92E4B1B789BB16426606825
:1040200005F005FB00BB012005F066FB013EF6D163
:104030000021212002F0C0FEF0E786F31188BFF3D3
:104040006F8FF5E74FF02003EFF3118683F31288AB
:10405000BFF36F8F6068314605F0E9FA90B986F3D7
:104060001188BFF36F8FEDE74FF02003EFF3118658
:1040700083F31288BFF36F8F6068314605F0D7FA7B
:104080000028DAD03B691D70626838691368C3F88C
:1040900044050120C3F848050020C3F82001D3F8E7
:1040A0002051C3F858015268D3F85801D20608D5F8
:1040B000626812680820C2F800054FF48002C3F855
:1040C000042301229A6081F31188BFF36F8FF8BD3A
:1040D000DB1A002070B5012383400E4ABFF35B8FCB
:1040E000DC4352E8001F01EA040542E80056002EB6
:1040F000F7D1BFF35B8F4FF4803282400648C0F89F
:104100000823BFF35F8FBFF36F8F0B4214BF0120F3
:10411000002070BDC41200200010014070B40E4990
:10412000D1E90034D01AC31844F1000422F07F46CC
:10413000C1E90034A6F50013B3F5400F09D2074BCF
:104140001B681A0A1B069C19054B42F10005C3E9BE
:10415000004570BC02F038BF900A0020C812002051
:10416000980A002011B3BFF35B8F0123104A8340EC
:1041700052E800CF4CEA030C42E800C10029F7D115
:10418000BFF35B8F0B4A4FF480338340C2F8043394
:10419000094BBFF35B8F1B68BFF35B8FC340DB072B
:1041A00042BF064B4FF40032C3F80021704700BFF6
:1041B000C412002000100140C012002000E100E005
:1041C0000D4B1868010A0006BFF35F8F0B4BD3F845
:1041D0000435181841F10001B3F5801F0AD2084BCD
:1041E000D3E90023904271EB030303D210F18070F6
:1041F00041F10001704700BFC812002000100140CB
:10420000980A00202DE9F04F85B016461F469DF80C
:1042100040A00446FFF75EFF0190FFF7D1FFB042D8
:1042200071EB070354D23E4B301A67EB0101984201
:1042300071F100014FD23B4B03EB0413D3E902238E
:104240009F4208BF96425ED037494FF4803804F150
:10425000500508FA04F8AD00C1F848832046ADB215
:1042600005F02EFA26F07F4B05F1804504F5A87382
:1042700005F58835DC464FF003090293029A2CF0CD
:104280007F4341F82230C1F84483D1F80435274AEE
:104290006FF00200C01A604420F07F40904232D993
:1042A000286868B1D1F804350393A3EB0B0020F024
:1042B0007F40B0F5000F26D9204605F001FA039B98
:1042C000BAF1000F07D109EB030C09F10109D5E799
:1042D000BAF1000F09D06FF0150520460199FFF7DC
:1042E00041FF284605B0BDE8F08F0123104ABFF317
:1042F0005B8FA34052E8000F184342E800010029F9
:10430000F8D1BFF35B8F07490E98230101EB04122C
:10431000C8500F9B5360C2E902670025DDE700BF6C
:1043200001008000800A002000100140FDFF7F0096
:10433000C01200207FB51C4C1C4BC4F80833C4F8D5
:1043400048331B4B00254FF0FF304FF0FF31C4F8CE
:104350000855C3E902014FF48033C4F80433154B08
:1043600002264FF400320121C4F804631120C3F87F
:1043700080212A46FEF74EFC1120FEF71BFC0E4A58
:104380000123A360236013600C4B0D4A0093CDE919
:10439000015500232846FFF735FF3046FEF7B6FFEC
:1043A000284604B070BD00BF0010014003000F009C
:1043B000800A002000E100E0C41200201D4100003E
:1043C000FFFF7F002DE9F7432F4CD4F80433990702
:1043D0000BD5D4F8043143B12C4A0023C4F804317E
:1043E000D4F80431136801331360D4F80433DA03CA
:1043F0002AD5BFF35B8F264B53E8002F22F0010133
:1044000043E800100028F7D1BFF35B8FD30702D435
:10441000D4F84031C3B10025C4F84051D4F840313C
:10442000FFF7CEFE4FF02003EFF3118283F31288E3
:10443000BFF36F8F174BD3E90267B042B94106D281
:1044400082F31188BFF36F8F03B0BDE8F0834FF0A4
:10445000FF384FF0FF39C3E90289D3E900101D602E
:104460004FF48033C4F84833C4F84051D4F8403195
:1044700082F31188BFF36F8F0029E5D00090324698
:104480003B4628468847DFE700100140C81200205D
:10449000C0120020800A002030B5431C124C85B0A9
:1044A00005D08442A8BF0446012CB8BF0124FFF701
:1044B00087FE0E4B0C4DD3E90013401AB0F5000FE8
:1044C00010D22218AA4228BF2A4652184FF00000E4
:1044D00007490091CDE9010043F10003FFF792FE87
:1044E00005B030BD2A46F0E7FFFF7F00900A0020AC
:1044F0001D41000008B5FFF763FE024B1B68C01AA0
:1045000008BD00BF900A002010B5084C012363606D
:104510001120FEF75DFB064BC4F80833C4F848339E
:10452000044B4FF40032C3F8802110BD001001404D
:1045300003000F0000E100E008B5FDF75FFA044852
:10454000044A012104F09EFE0020FEF76DFA00BF30
:10455000A0A70000F9B600004FF08053D3F8302137
:10456000082A06D1D3F83431052B02D8024AD05C90
:1045700070470020704700BF1CB70000024AD2F805
:104580000034002BFBD0704700E0014010B54FF025
:104590008053D3F83021082A4ED14FF080420021B9
:1045A000C2F80C11C2F81011C2F8381502F54042D9
:1045B000D3F80414C2F82015D3F80814C2F824154F
:1045C000D3F80C14C2F82815D3F81014C2F82C151F
:1045D000D3F81414C2F83015D3F81814C2F83415EF
:1045E000D3F81C14C2F84015D3F82014C2F84415AF
:1045F000D3F82414C2F84815D3F82814C2F84C157F
:10460000D3F82C14C2F85015D3F83014C2F854154E
:10461000D3F83414C2F86015D3F83814C2F864150E
:10462000D3F83C14C2F86815D3F84014C2F86C15DE
:10463000D3F84434C2F87035FFF78EFF18B13A4B07
:104640003A4AC3F88C26FFF787FF18B1384BFB2294
:10465000C3F81825FFF780FF70B14FF080414FF08D
:104660008053D1F8E42ED3F8583222F00F0203F031
:104670000F031343C1F8E43EFFF76EFF20B12D4B4B
:104680004FF40072C3F840264FF08053D3F8303116
:10469000082B1AD14FF08043D3F80024D20744BF2F
:1046A0006FF00102C3F800244FF08053D3F8343187
:1046B000052B02D8204AD35C3BB14FF01023D3F82E
:1046C00008224FF08043C3F858254FF01023D3F849
:1046D0000022002A03DBD3F80432002B22DA174928
:1046E00001234FF01020C1F804351224FFF746FFD4
:1046F000C0F80042FFF742FFC0F80442FFF73EFF58
:104700000023C1F80435FFF739FFBFF34F8F0C4981
:104710000C4BCA6802F4E0621343CB60BFF34F8FC7
:1047200000BFFDE710BD00BF0050004048810300FE
:1047300000F000400090024016B7000000E0014089
:1047400000ED00E00400FA0530B50468CCB1BFF319
:104750005B8FB4FA84F3C3F11F03DBB201229A40EA
:1047600024EA020250E8005FA54204D140E8002C90
:10477000BCF1000FF6D1BFF35B8FE6D102480B709E
:1047800030BD0248FCE700BF0000AD0B0200AD0BDE
:1047900010B50368CB40DB0714D401238B400268BB
:1047A000BFF35B8F43EA020150E8004F944204D10B
:1047B00040E8001CBCF1000FF6D1BFF35B8FEED1D7
:1047C000014810BD0148FCE70000AD0B0400AD0B33
:1047D000014BC3F80405704700F00140F7B50446EB
:1047E00018B1012823D003B0F0BD4FF0804302225E
:1047F000C3F808230122DA60C3F80401D3F80431B6
:10480000064601238DF8073042F210754FF08047BD
:10481000D4B1012CE7D1D7F80C3403F48033AEBB0C
:1048200083B3012004F068FF013DF4D12AE04FF08A
:1048300080430022C3F808035860C3F80021D3F86E
:1048400000310DF10706DCE7D7F8183403F48033A4
:104850003EB9002BC7D0012004F04EFF013DF3D13B
:10486000C1E7D7F8182402F003023260002BBAD057
:104870009DF80700012803D104F03EFF013DC7D198
:10488000012CB0D1054B00225A71ACE7D7F80C24AB
:1048900002F001023270002BEAD1F3E7CC120020C3
:1048A000054B1A792AB99A71012218609A80034837
:1048B00070470348704700BFCC1200200000AD0BCA
:1048C0000C00AD0B08B5074B1B682BB10020FEF7A1
:1048D00093F908B9FEF76EF94FF080430022C3F850
:1048E000182508BDCC12002010B510B1012840D009
:1048F00010BD4FF08043D3F81814D3F81824CC031C
:104900001ED5900702D00020FFF768FF4FF08043CC
:104910000022C3F81825022008224FF4827303F105
:1049200080430021196002F180421C680124146058
:10493000154A12680AB34FF08043C3F80403D7E75F
:10494000D3F81424D107E1D5D3F81C249207DAD187
:104950000D4A12681AB10222C3F80423C8E7D3F83B
:104960000421002AFBD00022C3F80421D3F804312B
:10497000BEE700224FF48073D1E71A68002AFCD00A
:1049800019601B68B4E700BFCC1200204FF08043D1
:10499000D3F80C14D3F80C24C80325D5D10723D59C
:1049A000D3F81824D2031FD5114A917901F0FF00E2
:1049B000E1B9C3F80C01D3F80C1102200121917167
:1049C000C3F8340C1961126822B10822C3F8042319
:1049D00008487047D3F80C21002AFBD00022C3F806
:1049E0000C21D3F80C31F3E70348704703487047B4
:1049F000CC1200200000AD0B0500AD0B0B00AD0B81
:104A000010B54FF08043D3F800216AB10022C3F8FB
:104A10000021D3F800210122C3F80823184B58794C
:104A200010B95A711B6898474FF08043D3F804219E
:104A30005AB10022C3F80421D3F804210222C3F89A
:104A400008230F4B01201B6898474FF08043D3F891
:104A50000C21A2B1D3F80423120710D50022C3F809
:104A6000342CC3F80C21D3F80C110821C3F8081317
:104A7000034B9A71BDE810401B680420184710BD15
:104A8000CC120020036803F01F025B09026004D00F
:104A9000012B034818BF002070474FF0A04070471B
:104AA00000030050034A430900F01F00D35C184480
:104AB000C0B2704722B7000070B50546FFF7F2FF9D
:104AC0000C4C08300E4634F81030DA0508D5C3F324
:104AD000432304EBC302284654F833305268984706
:104AE000A3682BB1E26831462846BDE870401847FC
:104AF00070BD00BF9400002008B5FFF7D3FF034B43
:104B0000083033F81000400B08BD00BF94000020AF
:104B100008B5FFF7C7FF034B083033F81000C0F3A8
:104B2000400008BD9400002008B5FFF7BBFF034B11
:104B3000083033F81000C0F3401008BD9400002086
:104B4000034611F0010010B5CCB20DD1A207C4F399
:104B5000400012D5094AD2F820055860C2F8200555
:104B6000003818BF012008E04FF0A041D1F82025FF
:104B70001A60C1F82025002AE8D010BD00030050BB
:104B800010B5FFF78FFF124A083032F81030D90500
:104B90001CD5C3F3432123F4F85322F8103002F15B
:104BA0000E04002034F8023F13F4807F03D0C3F3D7
:104BB000432399420AD001303028F3D1002342F830
:104BC00031300448BDE81040FFF7E2BD10BD00BF22
:104BD000940000200C010020F0B50546002004469A
:104BE000012607468C420BD1114BD3F87C2132B100
:104BF0000022C3F87C21D3F87C3140F00040F0BDA6
:104C0000E3B29B0003F580729B0806FA03F31D4292
:104C10000BD002F1804202F5C042D2F800C0BCF1D4
:104C2000000F02D01760126818430134DAE700BFA2
:104C300000600040F7B506460846FFF733FF194FFE
:104C400000F108050C4637F81530DB0727D530464C
:104C500004F0B8FD2046FFF767FF40B12046FFF79C
:104C60004BFF316800F5A270002341F82030204648
:104C7000FFF786FF002301A827F815300194FFF7FE
:104C800001FF019B00EB8300074BD0F80027134086
:104C900043F00203C0F80037044803B0F0BD0448F5
:104CA000FBE700BF94000020F0F8FCFF0000AD0B14
:104CB0000400AD0B2DE9FF41164680460846FFF77C
:104CC000F1FE0D463168044609B32846FFF720FF80
:104CD00018B12846FFF728FF10BB0023CDE90033A9
:104CE0008DF80E308DF80F300DF10F020B4628466F
:104CF0000DF10E0104F00EFD474A04F1080132F8EF
:104D0000113023F0020343F0010322F811307368DD
:104D100063B328461F785968FFF7FAFE10B1D1B186
:104D20003E4826E03C4A04F1080032F8103023F0F7
:104D30002003DB04DB0C22F8103061B1032FEFD825
:104D40007168496891F800C0D8F80010A7B90CF54F
:104D5000A27C41F82C70304A04F1080132F811307D
:104D600023F01C0343EA870322F81130B3684BBBDE
:104D70002B4804B0BDE8F08101EB8C0143EA4C33D1
:104D8000D1F810E52EF0030EC1F810E5D8F80010A8
:104D900001EB8C0E43F02003DEF8101522F81030E2
:104DA00021F44F3121F44071CEF810152902DEF8BC
:104DB000108501F47C5141EA074141EA0801CEF82F
:104DC0001015C8E7D3E900672846FFF7D9FE002E83
:104DD000CED0114DD5E90023964203D19F4201D197
:104DE000002209E00F480DF10F01FFF7ADFC0C4B5D
:104DF0009842BED19DF80F2045F8326005EBC20302
:104E000008345F6035F8143043EA422343F480737A
:104E100025F81430ACE700BF940000200400AD0B6F
:104E20000000AD0B0C0100202DE9F0430C4685B0CD
:104E30008046204611461E46FFF734FE054629B33C
:104E40002046FFF765FE18B92046FFF76DFE18BB38
:104E5000314F05F1080937F8193013F01C0F02D053
:104E60004B78012B18D001238DF80F300023CDE9AA
:104E700000134A1C8B1C20460DF10F0104F04AFC64
:104E800037F8193043F0030327F81930002E41D0CA
:104E90002046FFF73DFE18B9204805B0BDE8F08375
:104EA00096F800C0D8F800301B4F0CF5A272002114
:104EB00043F8221005F1080237F8121021F0200102
:104EC000C904C90C27F8121075781DB3D8F8000072
:104ED000B67800EB8C002D04D0F8103523F499132C
:104EE00023F4F853C0F81035230203F47C5305F47F
:104EF00040353605D0F810E52B4306F4801641EA1C
:104F00004C31334341F0200143EA0E0327F81210DD
:104F1000C0F810350248C0E7940000200400AD0B33
:104F20000000AD0B014BC3E9021270479400002052
:104F300010B508461446FFF7F7FD50B10846FFF7D5
:104F4000B1FD054B083033F8103004485B0B23707B
:104F500010BD0348FCE700BF940000200000AD0B2B
:104F60000400AD0B70B5184E96F8804005464CBB5A
:104F70002146602206F1100005F0D2F92D68306F4D
:104F80002146884212D10023C5F87C3145F3073011
:104F9000D5F87C31FDF70EFE4FF00043C5F8043321
:104FA0000A48012386F88030B36770BDCBB29B00FE
:104FB00003F580727C2B08BFAC5001F1010108BFE2
:104FC000AB58DEE70248F0E7940000200000AD0B8C
:104FD0000C00AD0B034B93F88000003818BF012084
:104FE000704700BF940000200148FFF7D1BB00BF0D
:104FF000080100200148FFF7A7BB00BF08010020FF
:1050000073B5054608460C461646FFF78DFD00B3FE
:105010000846FFF77DFD0146D8B92046FFF76CFD35
:1050200004B2A40004F58072034628688150296800
:1050300082582144D1F8102542F00102C1F8102510
:105040002EB12968012202FA03F3C1F8043302B039
:1050500070BD2046FFF726FD0F4B083033F81030A7
:10506000C3F38203042B12D0052B12D001A80194A4
:10507000FFF708FD019AD0F81035D34003F0010383
:10508000991C204602B0BDE8704004F08CBB03219F
:10509000F7E70221F5E700BF940000202DE9F04F6B
:1050A000694BDFF8A881D3F80403D8F87010C0B2B8
:1050B00089B040F00040FFF78FFD051E2FDAC24691
:1050C00000235AF87C1F06A8CDE90633FFF738FD08
:1050D0005F4B01930DF118094FF0000B019A12F884
:1050E000013B0192DA0803F007031AF8022022FAC2
:1050F00003F3DA071CD409F10409BBF1000F14D043
:10510000D8F870104FF00040FFF766FDD8F87C101B
:1051100006A8FFF715FD0028DAD125F00045012487
:10512000002D79D109B0BDE8F08F4FF0010BD5E724
:10513000484B5B440293D9F800100029DBD0029B56
:1051400091FAA1F11C78B1FA81F141EA44142046A8
:10515000FFF7A8FC0830059438F81070C808BB08A1
:1051600019F80020039301F00701012303FA01F16C
:1051700022EA010209F8002005A8FFF783FC059A3E
:10518000039B02F5E072C7F3820650F822205B070A
:105190003746C2F3014224D520463946D6B2FFF73E
:1051A0008BFC05A80594FFF76DFC059B03F5E073E8
:1051B00050F82330C3F301439E4207D1002120461B
:1051C00004F0F1FA3146204604F0EDFA05A8059402
:1051D000FFF758FC059B012202FA03F3C0F82035C3
:1051E000A9E7022A0CD10321204604F0DCFA06F0DC
:1051F0000503012BEAD139462046FFF75DFCE5E7C0
:1052000002212046039204F0CEFA032EF3D0039A33
:10521000032ADBD1022EEDE795FAA5F3B3FA83F367
:1052200004FA03F29B0003F1804303F5C04325EA2F
:105230000205D3F81005D3F81015C0F30520C1F30B
:105240000141FFF739FC6BE700600040940000204B
:1052500032B7000032B7000001460148FFF774BAC8
:105260001801002030B500F01F04400911D00128BA
:1052700012D10C4800EB84001B02D0F800570A4CF6
:1052800043EA82022C4042EA41012143C0F8001760
:1052900030BD4FF0A040EDE704F5E074002353F873
:1052A0002430FFDE00030050F0F8FCFFCB7B10B48D
:1052B00033B9D1E900420368C3F80845C3F80C25A7
:1052C00003688A68C3F8242503793C225343054ABE
:1052D000D3582BB1006810BC40F30730FDF76ABC0F
:1052E00010BC7047D412002013B53B4B0193002330
:1052F000C0F80431D0F80421C0F82431D0F82421BA
:10530000C0F81C31D0F81C21C0F80831D0F80821B1
:10531000C0F800324B6381F82F300123036291F80B
:105320002D209A4218BF83604B6B8A6A93420446D1
:105330000ED24A6AD35CC0F81C350B6803B340F246
:1053400086238B608B682548C4F8043302B010BDF7
:1053500091F82C3013B10123C361EEE70B6A13F00F
:10536000400F4FF0010316BFC361436181F82D3038
:10537000E3E7204604F04EFA28B1019B013B01937C
:10538000019B002BF5DC91F82F305BB91348019B92
:10539000002BDBDC0023C4F8003505231048C4F8DB
:1053A0000035D3E7D4F8C434C4F8C4348BB10D4A03
:1053B0000B4813F0010F18BF104613F0020F02F153
:1053C000010218BF104613F0040F074B18BF184610
:1053D000DDE70348DBE700BFA08601000000AD0B5E
:1053E0000100AD0B0000AE0B0200AE0B13B5334B4A
:1053F00001930023C0F80431D0F80421C0F824310F
:10540000D0F82421C0F81C31D0F81C21C0F8083194
:10541000D0F808214B6381F82F308B6A012B0446AA
:1054200017D10B6A5B0614D40223C4F8003201239F
:10543000236291F82D20022A18BF23600B688BB1DC
:1054400040F286238B608B681D48C4F8043302B099
:1054500010BD0123E9E7204604F0DCF928B1019BE7
:10546000013B0193019B002BF5DC91F82F305BB9D8
:105470001348019B002BEADC0023C4F80035052308
:105480001048C4F80035E2E7D4F8C434C4F8C43492
:105490008BB10D4A0B4813F0010F18BF104613F0E3
:1054A000020F02F1010218BF104613F0040F074B60
:1054B00018BF1846DDE70348DBE700BFA086010000
:1054C0000000AD0B0100AD0B0000AE0B0200AE0BF7
:1054D0002DE9F84390F804901C4E07463C2000FB51
:1054E00009F035180C4695F82E1061BBA9603250B2
:1054F0006B6085F82D1085F8311085F83010CCB12F
:10550000637B85F8383094F80E8085F83980B8F1DF
:10551000000F0BD12068062303224146FFF7A2FEAD
:105520006068062303224146FFF79CFE2146384669
:10553000FFF7BCFE3C2303FB09660548012386F800
:105540002E30BDE8F8830348FBE700BFD4120020EB
:105550000000AD0B0C00AD0B036802790521C3F808
:105560000015044B3C2101FB0233022283F82E205C
:10557000704700BFD412002003680B4A0179C3F8BA
:105580000823D3F8002222F00302C3F800220022ED
:10559000C3F80025054B3C2000FB0133012183F8B3
:1055A0002E1083F83020704786420400D412002069
:1055B0002DE9F047314F0479D0F800903C2303FBEC
:1055C00004730D4693F82D30012B944604D10B78CB
:1055D000012B06D12A4811E0022B02D10B78012BB6
:1055E000F8D13C26274BC9F8083306FB047696F819
:1055F00030302BB1B3682448C9F80433BDE8F087D4
:105600008CF00403C3F3800386F83030C6F820C062
:10561000A846B8E80F0006F10C0EAEE80F00D8F867
:105620000030CEF800306B68B362EB6873626B7861
:10563000C9F888352B78C4EB041A012B07EB8A0ACA
:1056400017D09BB9CCF3401C3C2303FB0473514699
:10565000484683F82CC0FFF747FE3C235C433A19C9
:105660003B59002BCAD182F83030C7E74FF0010C0C
:10567000EAE751464846FFF7B9FEEEE7D4120020AC
:105680000500AD0B864204000B00AD0BF0B5324CAB
:10569000324887B0214604F0BDF8002859D194F86B
:1056A0002F70FFB9227B931E012B1BD8606AA36960
:1056B000984217D1E36963626369A362236A27484A
:1056C00084F82D70C3F34013032A84F82C3004D1DE
:1056D00007B0BDE8F040FFF707BE07B0BDE8F040F7
:1056E000FFF784BE1E4E0FCE01AD0FC533682B6091
:1056F00047B31A4AD2F8C434C2F8C43413F00201D2
:1057000006D001238DF80030002384F8303007E004
:1057100013F0040209D002238DF8003084F8301011
:10572000D4E900316846984713E013F0010305D02F
:1057300003238DF8003084F83020F1E704228DF83F
:105740000020E2E7236A8DF800705B0784F8307070
:10575000E6D507B0F0BD00BFD412002000300040F5
:10576000E0120020036803F01F025B09026004D00E
:10577000012B034818BF002070474FF0A04070472E
:1057800000030050F7B5064604F0DCF8084604F0C4
:10579000D9F801A80196FFF7E5FF019B2E4D00EB1C
:1057A00083000C46D0F80037019440F20D612B4085
:1057B0000B43C0F8003701A8FFF7D4FF019B00EBB3
:1057C00083000127D0F800372B400B43C0F8003787
:1057D000042003F091FF092501A80194FFF7C2FFFF
:1057E000019AD0F81035D340DB0715D401A80196F3
:1057F000FFF7B8FF019B07FA03F3C0F80C3504204C
:1058000003F07AFF304604F09DF8013D042003F0D8
:1058100073FF15F0FF05DFD101A80194FFF7A2FF88
:10582000019A01239340C0F80C35042003F064FF73
:10583000204604F087F8042003F05EFF01A80194DD
:10584000FFF790FF019AD0F810350448D34003F0D9
:105850000103C01A03B0F0BDF0F8FCFF0100AD0B6E
:1058600008B5124BA8220021184604F059FD032266
:1058700002610F4942610F4A8161C2614FF4806247
:105880000262002282624262C26201660A49416685
:1058900010218166094902670346C266426711F812
:1058A000010D98540132102AF9D108BD10130020BF
:1058B00034B70000DB160020CB1600204DB70000E7
:1058C0002DE9F84FDFF87C80182606FB008E00FBE0
:1058D00006664644DEF82440DEF828C07368A44516
:1058E00007468946154603EB040022D8DEF820B0AF
:1058F000ABEB040A0AF1FF339A4203D804F002FD2D
:105900002C440FE063449A4219D852462C4404F0C8
:10591000F9FCB4EB0B0405D07068224609EB0A01D0
:1059200004F0F0FC182303FB078301205C62BDE850
:10593000F88F0CF1FF3CACEB040C9445DED2002058
:10594000F5E700BF10130020034B182202FB0033C1
:105950009A6A586A801A70471013002003484FF063
:10596000FF324FF0FF3300F02FBD00BF4402002094
:10597000014800F0EDBC00BF4402002010B50369EF
:105980000020186003293DD8DFE801F00212151845
:10599000B3F9181058691D4C414391FBF4F004FB16
:1059A0001011106051601A6801321A60002010BD99
:1059B000B3F95810EEE7B3F99810EBE75869B3F96B
:1059C00018104143114891FBF0F400FB14111460CE
:1059D000516019685C692C3133F91110614391FBF6
:1059E000F0F400FB14119460D16019685C694C31CB
:1059F00033F91110614391FBF0F400FB14111461B1
:105A00005161D0E76FF08500D1E700BF40420F0041
:105A1000F0B507694668786085B00446306804F0E0
:105A200015F920B933682348196802F0C8FF2046E9
:105A300000F048F818B121681F4802F0C0FFBB68A9
:105A40000DF10F029B68132120469847051E0BDAC3
:105A50009DF80F30194A009319482B46012103F095
:105A600024FC284605B0F0BD002102AA30468DF87E
:105A7000081003F092FF90B9502303AA1721304673
:105A80008DF80C3003F072FF9DF8083002AA43F045
:105A90000103152130468DF8083003F067FF4FF4FD
:105AA00075737B61BB680622DB6815212046984729
:105AB0000025D6E74EB700006AB7000090B7000097
:105AC00080A7000010B543680469186804F0BEF8A8
:105AD00028B9054802F073FF6FF0120010BD034BA8
