:10000000002C0020C12E000051960000952E00000B
:10001000952E0000952E0000952E00000000000097
:100020000000000000000000000000003527000074
:10003000952E000000000000D1260000952E000043
:10004000F1270000F1270000F1270000F127000050
:10005000F1270000F1270000F1270000F127000040
:10006000F1270000F1270000F1270000F127000030
:10007000F1270000F1270000F1270000F127000020
:10008000F1270000F1270000F1270000F127000010
:10009000F1270000F1270000F1270000F127000000
:1000A000F1270000F1270000F1270000F1270000F0
:1000B000F1270000F1270000F1270000F1270000E0
:1000C000F1270000F1270000F1270000F1270000D0
:1000D000F1270000F1270000F1270000F1270000C0
:1000E000F1270000F1270000F1270000F1270000B0
:1000F000F1270000F1270000F1270000F1270000A0
:1001000081F0004102E000BF83F0004330B54FEAC8
:1001100041044FEA430594EA050F08BF90EA020F35
:100120001FBF54EA000C55EA020C7FEA645C7FEAC8
:10013000655C00F0E2804FEA5454D4EB5555B8BFEB
:100140006D420CDD2C4480EA020281EA030382EA5C
:10015000000083EA010180EA020281EA0303362DEE
:1001600088BF30BD11F0004F4FEA01314FF4801CC1
:100170004CEA113102D0404261EB410113F0004FD3
:100180004FEA03334CEA133302D0524263EB43038A
:1001900094EA050F00F0A780A4F10104D5F1200E28
:1001A0000DDB02FA0EFC22FA05F2801841F1000183
:1001B00003FA0EF2801843FA05F359410EE0A5F157
:1001C00020050EF1200E012A03FA0EFC28BF4CF088
:1001D000020C43FA05F3C01851EBE37101F000453E
:1001E00007D54FF0000EDCF1000C7EEB00006EEB4B
:1001F0000101B1F5801F1BD3B1F5001F0CD34908D5
:100200005FEA30004FEA3C0C04F101044FEA44522B
:1002100012F5800F80F09A80BCF1004F08BF5FEAB2
:10022000500C50F1000041EB045141EA050130BD92
:100230005FEA4C0C404141EB0101013C28BFB1F5A4
:10024000801FE9D291F0000F04BF01460020B1FAEF
:1002500081F308BF2033A3F10B03B3F120020CDAC2
:100260000C3208DD02F1140CC2F10C0201FA0CF0A0
:1002700021FA02F10CE002F11402D8BFC2F1200C05
:1002800001FA02F120FA0CFCDCBF41EA0C019040BB
:10029000E41AA2BF01EB0451294330BD6FEA040404
:1002A0001F3C1CDA0C340EDC04F11404C4F12002EF
:1002B00020FA04F001FA02F340EA030021FA04F301
:1002C00045EA030130BDC4F10C04C4F1200220FA58
:1002D00002F001FA04F340EA0300294630BD21FA96
:1002E00004F0294630BD94F0000F83F4801306BF5C
:1002F00081F480110134013D4EE77FEA645C18BF50
:100300007FEA655C29D094EA050F08BF90EA020FE6
:1003100005D054EA000C04BF1946104630BD91EADE
:10032000030F1EBF0021002030BD5FEA545C05D1E1
:100330004000494128BF41F0004130BD14F5800420
:100340003CBF01F5801130BD01F0004545F0FE4194
:1003500041F470014FF0000030BD7FEA645C1ABFC9
:10036000194610467FEA655C1CBF0B46024650EA00
:10037000013406BF52EA033591EA030F41F400212C
:1003800030BD00BF90F0000F04BF0021704730B5B2
:100390004FF4806404F132044FF000054FF0000187
:1003A00050E700BF90F0000F04BF0021704730B548
:1003B0004FF4806404F1320410F0004548BF40421D
:1003C0004FF000013EE700BF42004FEAE2014FEA72
:1003D00031014FEA02701FBF12F07F4393F07F4F4D
:1003E00081F06051704732F07F4208BF704793F050
:1003F0007F4F04BF41F40021704730B54FF4607463
:1004000001F0004521F000411CE700BF50EA010265
:1004100008BF704730B54FF000050AE050EA01020E
:1004200008BF704730B511F0004502D5404261EB7E
:1004300041014FF4806404F132045FEA915C3FF4BF
:10044000D8AE4FF003025FEADC0C18BF03325FEA5C
:10045000DC0C18BF033202EBDC02C2F1200300FA0D
:1004600003FC20FA02F001FA03FE40EA0E0021FA32
:1004700002F11444BDE600BF70B54FF0FF0C4CF420
:10048000E06C1CEA11541DBF1CEA135594EA0C0FD2
:1004900095EA0C0F00F0DEF82C4481EA030621EA0D
:1004A0004C5123EA4C5350EA013518BF52EA033548
:1004B00041F4801143F4801338D0A0FB02CE4FF0FA
:1004C0000005E1FB02E506F00042E0FB03E54FF02A
:1004D0000006E1FB03569CF0000F18BF4EF0010E22
:1004E000A4F1FF04B6F5007F64F5407404D25FEA1E
:1004F0004E0E6D4146EB060642EAC62141EA5551D1
:100500004FEAC52040EA5E504FEACE2EB4F1FD0C12
:1005100088BFBCF5E06F1ED8BEF1004F08BF5FEA90
:10052000500E50F1000041EB045170BD06F0004642
:1005300046EA010140EA020081EA0301B4EB5C04EF
:10054000C2BFD4EB0C0541EA045170BD41F48011E7
:100550004FF0000E013C00F3AB8014F1360FDEBF0C
:10056000002001F0004170BDC4F10004203C35DAE8
:100570000C341BDC04F11404C4F1200500FA05F36B
:1005800020FA04F001FA05F240EA020001F000420C
:1005900021F0004110EBD37021FA04F642EB060182
:1005A0005EEA430E08BF20EAD37070BDC4F10C04AC
:1005B000C4F1200500FA04F320FA05F001FA04F270
:1005C00040EA020001F0004110EBD37041F100015C
:1005D0005EEA430E08BF20EAD37070BDC4F1200567
:1005E00000FA05F24EEA020E20FA04F301FA05F2CF
:1005F00043EA020321FA04F001F0004121FA04F277
:1006000020EA020000EBD3705EEA430E08BF20EA46
:10061000D37070BD94F0000F0FD101F00046400080
:1006200041EB010111F4801F08BF013CF7D041EA02
:10063000060195F0000F18BF704703F00046520006
:1006400043EB030313F4801F08BF013DF7D043EAD7
:100650000603704794EA0C0F0CEA135518BF95EA8D
:100660000C0F0CD050EA410618BF52EA4306D1D114
:1006700081EA030101F000414FF0000070BD50EA33
:10068000410606BF1046194652EA430619D094EABD
:100690000C0F02D150EA013613D195EA0C0F05D1A7
:1006A00052EA03361CBF104619460AD181EA0301FB
:1006B00001F0004141F0FE4141F470014FF00000B3
:1006C00070BD41F0FE4141F4780170BD70B54FF04E
:1006D000FF0C4CF4E06C1CEA11541DBF1CEA1355CE
:1006E00094EA0C0F95EA0C0F00F0A7F8A4EB0504B0
:1006F00081EA030E52EA03354FEA013100F08880A7
:100700004FEA03334FF0805545EA131343EA12636F
:100710004FEA022245EA111545EA10654FEA002624
:100720000EF000419D4208BF964244F1FD0404F5DD
:10073000407402D25B084FEA3202B61A65EB030539
:100740005B084FEA32024FF480104FF4002CB6EBF6
:10075000020E75EB030E22BFB61A754640EA0C0076
:100760005B084FEA3202B6EB020E75EB030E22BFB6
:10077000B61A754640EA5C005B084FEA3202B6EBF7
:10078000020E75EB030E22BFB61A754640EA9C00B6
:100790005B084FEA3202B6EB020E75EB030E22BF86
:1007A000B61A754640EADC0055EA060E18D04FEA44
:1007B000051545EA16754FEA06164FEAC30343EAE4
:1007C00052734FEAC2025FEA1C1CC0D111F4801FB1
:1007D0000BD141EA00014FF000004FF0004CB6E7AA
:1007E00011F4801F04BF01430020B4F1FD0C88BF49
:1007F000BCF5E06F3FF6AFAEB5EB030C04BFB6EB54
:10080000020C5FEA500C50F1000041EB045170BD46
:100810000EF0004E4EEA113114EB5C04C2BFD4EB73
:100820000C0541EA045170BD41F480114FF0000EF7
:10083000013C90E645EA060E8DE60CEA135594EA73
:100840000C0F08BF95EA0C0F3FF43BAF94EA0C0F76
:100850000AD150EA01347FF434AF95EA0C0F7FF4EB
:1008600025AF104619462CE795EA0C0F06D152EA3F
:1008700003353FF4FDAE1046194622E750EA410623
:1008800018BF52EA43067FF4C5AE50EA41047FF434
:100890000DAF52EA43057FF4EBAE12E753B94AB904
:1008A000002908BF00281CBF4FF0FF314FF0FF3078
:1008B00000F00CB8ADF1080C6DE904CE00F008F8BA
:1008C000DDF804E0DDE9022304B07047704700BFA3
:1008D0002DE9F04786468C460846089E1546744624
:1008E0001946002B40F0C2808542B2FA82F245D907
:1008F0004AB1C2F1200300FA02FC2EFA03F395403C
:1009000043EA0C0C94404FEA154EA8B2BCFBFEF82B
:10091000230C0EFB18CC08FB00F943EA0C43994565
:1009200028D9EB1808F1FF3704D2994502D9A8F16C
:1009300002072B44A3EB0903A4B2B3FBFEFC0EFB9E
:100940001C330CFB00F044EA0344A04214D92C19D8
:100950000CF1FF3304D2A04202D9ACF102032C44C3
:10096000241A43EA07401EB1D44000233460736068
:10097000BDE8F0874746DDE76346F1E792BB431BDE
:1009800001214FEA154EAFB2B3FBFEFC200C0EFB6B
:100990001C330CFB07F840EA0343984562D9EB1877
:1009A0000CF1FF3004D2984502D9ACF102002B447F
:1009B000A3EB0803A4B2B3FBFEFC0EFB1C330CFB41
:1009C00007F744EA0344A7424ED92C190CF1FF3330
:1009D00004D2A74202D9ACF102032C44E41B43EA3F
:1009E0000040C0E7C2F1200320FA03F19540904097
:1009F0002EFA03F303434FEA154EAFB2B1FBFEFCF0
:100A00000EFB1C10190C0CFB07F841EA004188454D
:100A100004FA02F422D969180CF1FF3004D2884597
:100A200002D9ACF102002944A1EB08019BB2B1FB51
:100A3000FEFC0EFB1C110CFB07F743EA01439F422F
:100A40000ED9EB180CF1FF3104D29F4202D9ACF160
:100A500002012B44DB1B41EA004192E76046E3E7D9
:100A60006146F7E76046A3E76346B7E7834206D9E6
:100A700016B9002108467BE7C6E900E0F9E7B3FABA
:100A800083F78FB9834201D3724508D8BEEB0204C5
:100A900060EB030301209C461EB9002168E738463D
:100AA000FAE7C6E9004CF8E7C7F1200CBB4022FA90
:100AB0000CF41C432EFA0CF120FA0CF3B84001435D
:100AC0004FEA14490EFA07F5B3FBF9F81FFA84FE52
:100AD00009FB18300B0C08FB0EFA43EA00439A4559
:100AE00002FA07F240D9E31808F1FF3004D29A4520
:100AF00002D9A8F102002344A3EB0A0389B2B3FB95
:100B0000F9F809FB183308FB0EFE41EA03418E4554
:100B10002CD9611808F1FF3304D28E4502D9A8F10F
:100B20000203214443EA0040A0FB0298A1EB0E011E
:100B30004145CE46434602D306D14D4504D2B9EBDA
:100B4000020E68EB04030138002EA6D0B5EB0E02AE
:100B500061EB030101FA0CFC22FA07F34CEA0303F0
:100B6000F940C6E9003198E74046C5E74346D9E772
:100B7000034613F8012B002AFBD1181A01387047DD
:100B80002DE9F04F8BB0424C204609F0C2F918B95C
:100B90002168404808F0E0F83F4809F0BAF910B978
:100BA0003E4806F041FE3E483E4983681B68984730
:100BB000014610B13C4808F0CFF8DFF8F08032A5CC
:100BC000D5E90045D8F808903A21D9F80C303748D3
:100BD0009847014630B90321D9F8103004AA40469D
:100BE0009847014600290BDA314808F0B5F831483A
:100BF00008F0B2F800214FF4803006F077F9E3E70F
:100C00000598FFF7CFFB22462B46FFF75FFD064610
:100C100004980F46FFF7C6FB02460B46304639469E
:100C2000FFF774FA824609988B46FFF7BBFB224612
:100C30002B46FFF74BFD064608980F46FFF7B2FB21
:100C400002460B4630463946FFF760FACDE902010D
:100C50000798FFF7A7FB22462B46FFF737FD06460E
:100C600006980F46FFF79EFB02460B463046394674
:100C7000FFF74CFA5246CDE900015B460E4808F0FA
:100C80006BF8B4E7AFF300800000000080842E41D1
:100C90008CA60000E8AF000050A6000004B00000E1
:100CA000A0A60000BD0C000015B00000C8A6000002
:100CB0003CB00000A5B1000056B0000070B5074878
:100CC0000C4615461E4608F047F833462A4621468C
:100CD0000348BDE8704008F03FB800BFBCAF00005B
:100CE000CCAF00002DE9F04F91B08407009302F0E3
:100CF00004030293C2F3C20303F10103DDF8689019
:100D0000039205460E46059340F0BA81041D30B1AA
:100D1000072909D86FF01B0011B0BDE8F08F01F072
:100D20000706341DC6F10806009B4FF00008591E47
:100D30004FF0040A4FF0FF330193CDF8108047467F
:100D4000C34653460DB1009A22600598002800F36F
:100D5000E8809848009A824203D397488242C0F0C4
:100D6000E080039AA4EB050E92074FEA9E0000F183
:100D700003810F2F00F2B180002D00F0058107F1F3
:100D800040020DEB020C019A0CF8200C0CF8102C10
:100D9000049801300490E7E07A285DD84B280ED8FB
:100DA000472859D829282DD8252852D054D820286A
:100DB0007AD02338D0F1000B4BEB000B74E04C38A9
:100DC0002E2849D8DFE800F070484848484848488D
:100DD000484848484B484848484848484859484B7C
:100DE0004B595959704B6D487048184B18484882F8
:100DF0007F4B48484B487F0000204FF0000B4FF0DE
:100E0000040A38E02A38C0B2012202FA00F010EADF
:100E10000E0F49D110F0625C2FD110EA020B43D0C3
:100E20006046013C5444B4FBFAF40AFB04F4002D80
:100E300061D0A3EB050CA4446645FFF46BAF00281A
:100E400068D1042B47D159F8043B236004340423B0
:100E50002AE0019A013A01924FF0000B24E011F8C8
:100E6000010C6C2834D111F8023C00206C2B834615
:100E7000C5D14FF0080A5346D3E709F1070929F015
:100E800007090734F9E802AB24F0070435B10698E6
:100E90002044B0423FF63EAFC4E900AB08344FF007
:100EA000000B4FF0080A534611F8010F002878D0C4
:100EB000BBF1000F7FF470AF2528F5D1019B013302
:100EC00001934FF0010B4FF0040AECE7584694E70A
:100ED00000208346A5E7082B02D06FF015001BE722
:100EE00009F1070929F00709F9E80223C4E90023F9
:100EF00008340823D8E768B9042B02D109F10409A2
:100F0000A4E7082BE9D109F1070929F0070909F13C
:100F10000809EDE7059A013A059259F8042B009269
:100F200010E7039A900720D5A4EB050E4FEA9E0028
:100F30004FF0010CBEF5007FCFD20F2FCDD8F5B109
:100F400007F140020DEB020EC0B2019A0EF8200C20
:100F50000EF8102CBCF1000F3FF41AAF60F07F00C8
:100F60000EF8200C08F101080137C5F1080204341D
:100F700006924FF6DA7E97E74FF0000CDAE7BCF105
:100F8000000F01D00136EFE7029802360028EBD1BE
:100F90000098CDE90631FFF7EBFDDDE906310644A7
:100FA000E2E7631BB3F5806F97D23DB9A6F1080461
:100FB000E018B1E6ACA500007CBC0000029A2860F5
:100FC0009B082B709DF81030C2B1EB7085F8028041
:100FD000B8F1000F05D008A80022C5F1010C974216
:100FE0000ED1C5F101030DF120094FF0000A019364
:100FF0000DF1300B574512D1601B8DE66B70E5E7A4
:1010000010F8013B190608D504EB0C0E764503F0E9
:101010007F03FFF47FAE04F8013B0132DFE7B8F154
:10102000000F03D099F90020002A17DB029BD3B1EF
:101030001AF80B2004F8012B0022019B9818204479
:101040008642FFF467AE99F8000004F8010B00999E
:101050000392204609F082FA039A14440AF1010A25
:1010600009F10109C6E799F8002055F822300093EC
:10107000029B45F822300098FFF77AFD421CDCE71E
:101080006FF00D0048E600BF2DE9F04F95B000AFBE
:1010900090F802B0BB61BB6F7A62C3F3C003044631
:1010A0003B618A4641B9457800780BEB80002044CB
:1010B000554517D8A0EB040AE3787B61BBF1000F1C
:1010C00002D0BB6FD80716D47B6953BB7B6A1BB1B8
:1010D000BA69514620469847554628465437BD467A
:1010E000BDE8F08F461C3046FFF742FD013030442A
:1010F0000AF1010ADCE723783B629B00FB603B6A54
:101100006268FA6104EB83097B6A002B40F0FE8081
:101110005546C84609EB0B0A0026D04551D1D944A3
:1011200013E0BB6F9907D1D523783B6299469B00AA
:10113000FB606368FB617B6A04EB8909002B7AD151
:101140005546BBF1000F4FD15E46BB6F13F0050F44
:101150007B6909EB430ABB6F03F002030CBF4FF03E
:10116000020B4FF0010B7B62D145B6D019F8021B80
:1011700019F8013C54F82380AA4B984502D3AA4B96
:10118000984538D33B69002B42D0F86907F0BDFD84
:1011900000283DD0E8468AB06A46A44B5361FB69FB
:1011A000C2E906314FF400731384A14B42F8103F9B
:1011B000A04800234FF4125100F020FD023DC54627
:1011C000D2E718F8013B54F82300FFF7D1FCFB6F7E
:1011D00001303BB1D7F880309E423EBFFB6F23F811
:1011E00016000136054498E7BB6F13F004061CBFD8
:1011F0007E6AD944A9E73B6923B1F86907F085FD08
:101200000028C7D1BB6FDA0705D4A5EB0B05ABE708
:101210007B6A002BA8D04046FFF7AAFCFB6F43B1C6
:10122000D7F880309E423FBFFA6F431C22F8163039
:101230000136054498E7BBF1000F6DD0BB6F13F08A
:1012400004066CD0D846002607F140005A464946AD
:1012500009F084F97B695B007B607B69D94409EB09
:101260004303BB60BB6F03F002033B60BB684B45AD
:1012700057D1B96F6378B86F890706EB030254BF83
:101280004FEA58010021C507D2B200F19A8010F050
:10129000040F14BF40460020FB616270A070E17033
:1012A000BA69F9687B6A20469847051EFFF615AFB4
:1012B0003B6A2370FB6963707B69E3704146BA69DE
:1012C0007B6A84F802B007F140009847B0F100084B
:1012D000C0F2A480FB68BA69AAEB0B01C91A7B684B
:1012E0004846C91A7B6A98470028C0F29980A844EA
:1012F00008EB00054FF0000B07F1300AB34562D34D
:101300000021BA697B6A08469847E6E65E464FF0D8
:10131000000807F1300099E75E46D8469AE7B046E4
:1013200098E719F8021B3F4B19F8015C54F82500A7
:10133000984202D33C4B98421DD33B6923B1F869D4
:1013400007F0E3FC002891D13B68FBB908F12803C2
:1013500007F1280208F1010003EB020C07F150032A
:1013600053FA80F008F102080CF8101C5FFA88F8B4
:1013700000F8105C7AE73B692BB1F86907F0C5FC0F
:1013800000287FF473AFBB6FDB0709D506F1280394
:1013900007F12802711C9E1806F8205CCEB265E7A2
:1013A000BB6F58077FF562AF08F1280307F12802E9
:1013B00008F1010103EB020808F8105C5FFA81F8FC
:1013C00054E7002068E71BF80A3087F82F3054F8FC
:1013D0002390FB6FFBB133F81B80BA697B6A012154
:1013E00007F12F00984700281ADB0544B8F1000FD9
:1013F00006D14846FFF7BCFB00F101081FFA88F848
:10140000BA697B6A414648469847002808DB05448C
:101410000BF1010B72E7D7F87C80DEE745465CE60E
:1014200005465AE6ACA500007CBC000073B0000085
:101430000400000184A80000014B1860704700BF41
:101440000000002080B505460E461746984605F078
:1014500067FD034609F0A0F8DFF81890044649F844
:101460000030424630463946A84754F8090001F09A
:10147000A7FD00BF080000002DE9F047058B0446DA
:101480002807904611D4022905F0070540F0CD80C9
:10149000204607F0D7FC78B10138218B042811D8F9
:1014A000DFE800F0C3106D85950001290CBF45F001
:1014B000100545F02005258388F31188BFF36F8F51
:1014C000BDE8F08701F0070AAA4500F0A6800027D2
:1014D000B9463E46A368002B00F0BD8041F00801EC
:1014E000218388F31188BFF36F8FA168002900F072
:1014F000BB800D68002900F0B780D1F80480334626
:1015000052462046C047002D76D02B6829461D46FE
:10151000F0E701F007035A1F012A1BD8002221F02F
:101520000701062B276889B2C4E9002209D13B468E
:1015300003E0628B013262831B68002BF9D141F01A
:1015400002012183204607F07DFC00287BD041F07A
:10155000200177E0042B0AD121F0070189B2218311
:10156000204607F06FFC10B141F020012183218B50
:1015700001F0070AAA4550D00027B946AAE7236917
:1015800021F0070141F00601062DD3F800902183D8
:101590002DD1B9F1000F40D041F00801218388F32B
:1015A0001188BFF36F8F3A492046C84729E021F0E0
:1015B0000701236941F0040189B2042DD3F8049096
:1015C0002183E6D000273E464FF0040A82E721F04F
:1015D0000701236941F0050189B2052DD3F8089070
:1015E0002183D6D000273E464FF0050A72E7002738
:1015F0003E464FF0060A6DE72B4687E7B9F1000F2C
:10160000D1D14FF02003EFF3118883F31288BFF399
:101610006F8F238B23F008032383258BEA062ED5B7
:1016200025F01003238305F007056669218B002E42
:10163000BFF66FAF00232768C4E9003321F007012C
:1016400041F001012183218B01F0070AAA454FF0E7
:1016500000097FF43FAF002F9BD041F008012183A8
:1016600088F31188BFF36F8F002FC7D03D683946CC
:1016700033465246204607F011FC2F46F4E7AB06EE
:101680007FF51AAF25F02003238305F00705FFE659
:10169000C98E000008B504464FF02002EFF3118315
:1016A00082F31288BFF36F8F03F0CAFA204601F06D
:1016B00031FC034807F050FB00F008FFFCE700BFD7
:1016C00027B1000003F004BB2DE9F047DFF8588094
:1016D000044607464FF0010914B93846BDE8F087C3
:1016E00094FAA4F5B5FA85F509FA05F32E0108EB8D
:1016F00005156FEA030A24EA03042B7B002BEBD0C9
:1017000058F806301B694BB94644042273682846D2
:10171000196807EA0A0700F05DFADDE728469847EE
:101720000028D9D1F0E700BF04A9000030B5104966
:10173000104889B0002208F0BAFD0F4D0F49002271
:101740000023CDE9062300240E23CDE90334CDE99F
:1017500001440B4B00944FF44072284604F028FEDD
:101760000849284608F034FC204609B030BD00BFC7
:1017700089170000480A0020C0050020001B002037
:10178000791A000050B10000014804F04FBF00BFBB
:101790005C0200202DE9F04780461F480F4607F005
:1017A000B8FE0646002830D000252846BDE8F08760
:1017B000237B73B12368DB680BB12046984723680D
:1017C0001B69D3B9636804221968204600F002FA45
:1017D000013610344C45EBD3B8F1000FE5D0002DA5
:1017E000E2D02846FFF770FF0546002FF7D0002112
:1017F0004FF4A47005F07AFBF1E7204698470028E3
:10180000E0D00AFA06F31D43E2E7044CDFF810903B
:1018100005464FF0010ADDE7700C002004A9000026
:1018200024A90000014B53F820007047DCAB0000F6
:1018300008B5034608462BB1044A136000F080FC4B
:10184000002008BD6FF01500FBE700BF040000207A
:1018500010B5044C237813B9034804F0E7FE0123C4
:10186000237010BD9A1600205C02002010B50446BB
:10187000084807F04EFE5CB1BFF35B8F064B53E8A0
:10188000001F013943E80012002AF8D1BFF35B8F33
:1018900010BD00BF680C00206C0C00200020064B1F
:1018A000BFF35B8F014653E8000F43E80012002AA4
:1018B000F9D1BFF35B8F7047680C002070B5FFF75C
:1018C000EDFF084C084E0546B44200D370BD636876
:1018D0005B792BB123685B6813B129462046984792
:1018E0001034F1E704A9000024A9000010B5044C4D
:1018F0000449204607F09EFC034B1C6010BD00BF4E
:1019000084010020C8AB0000600C0020084A094890
:1019100008B500231370084A1360084A4FF40041C9
:101920001360FFF785FFBDE80840FFF7DFBF00BF8A
:101930009B1600200F950000680C00206C0C002006
:10194000014600220148002307F095BC84010020D5
:10195000014807F02EBD00BF84010020024B014664
:10196000186807F078BD00BF600C0020014807F040
:10197000AEBD00BF8401002070B5284B1878002848
:101980004BD0FFF7E5FF054690B1BFF35B8F244BCB
:1019900053E8001F013943E80012002AF8D1BFF3D1
:1019A0005B8F204C204EB4422DD32846FFF7D6FF44
:1019B0001E4B1F4C1B68002B19DD08F076FC4FF402
:1019C0007A72A0FB020302FB0131C30BD4E90020B1
:1019D00043EA41439B1A4FEAD13140F2E93261EBCD
:1019E0000001934271F1000101D3FFF767FFD4E9D1
:1019F000003213F57A7342F10002C4E90032BDE807
:101A00007040FFF7B3BF63685B7923B12368294651
:101A10001B68204698471034C5E770BD9A16002011
:101A20006C0C002004A9000024A90000680C002010
:101A3000400A002070B50D4D297861B90120FFF7EB
:101A4000A9FE0B4C0B4EB44206D3FFF795FF0028BE
:101A5000FBD101232B7070BD63685B791BB12368D8
:101A600020469B6898471034EDE700BF9B16002086
:101A700004A9000024A9000000212DE9F047084630
:101A8000FFF788FE044658B340F267684FF000093C
:101A900008F082FD1B4B1C4A1B58136033B11B4BD3
:101AA0001B68092B02DD1A4804F0C0FD194FDFF84E
:101AB00060A0002544B12046FFF706FE044618B991
:101AC0004FF0FF384FF0FF39FFF756FF064628B9B1
:101AD000B5B942464B46504604F0CCFD3546E9E7E1
:101AE0004FF0FF384FF0FF39D2E72B689B691BB1ED
:101AF00000221146284698471035BD42F5D3E8E745
:101B0000054DFAE708000000640C00206C0C002072
:101B10005C02002024A9000004A9000013B51848A5
:101B200007F0F7FC174B1B787BB14FF02003EFF366
:101B3000118483F31288BFF36F8FFFF71DFF84F3C7
:101B40001188BFF36F8F02B010BD0F4B1B68002BC5
:101B5000F9D050B900220023CDE900230B484FF4FF
:101B60000042002305F020FCEDE70928EBD10748EF
:101B700008F0A9FB064802B0BDE8104004F056BDCD
:101B80006C0C00209B160020640C0020480A0020EA
:101B90005C02002010B5064B1B680446984721469E
:101BA000A060044807F0E5FBBDE81040FFF7B6BFB2
:101BB0000400002084010020044A054B9B1AB1EB6D
:101BC000D30F34BF52F83100002070475CA80000EA
:101BD00004A90000084BC31A10B41B114468013358
:101BE000237143689A7143681960436801225A71EE
:101BF00010BCFFF72DBE00BF04A900002DE9F04F77
:101C00008FB004AFC1F34A28B8600D4691467B609F
:101C10000C0DB8F1000F63D0002607F114034FF04C
:101C2000040B4FF00A0AC7F80C80C7E907667E620A
:101C30000193CDF808B0CDF800A007F11C03F968B6
:101C400032464846FFF720FAB0F5006F03461CD332
:101C50006C468AB0D9F8041004AB2648C3E90501E4
:101C600040F2FF71D9611A464FF400711984224B7A
:101C700042F8103F214833464FF41251FFF7BEFFA0
:101C8000A5462C37BD46BDE8F08FC0F30A0804F125
:101C90001700184420F0070080083B60FFF750FE53
:101CA00068F35325044690B13B68154AC7E90836E6
:101CB00000F1100107F11403F961CDE900A3CDF89B
:101CC00008B0F96807F11C034846FFF7DDF968F32F
:101CD00053257B68B9682A46204607F050FCD0E7B8
:101CE00004F1170020F007008008FFF729FE0446E2
:101CF000EDE700BF65B1000004000001BCA80000D2
:101D0000539500002DE9F04F87B0DDE91269DDE958
:101D1000105A04460F4693469846A6B31021CDF8B4
:101D20000090334652460020CDF81490FEF7DAFFBB
:101D3000014605F117000844144B039104F0070411
:101D40000BF0070BE40020F0070003EA412344EA0C
:101D50008B1480081C43FFF7F3FD44EA0554054645
:101D600040B13EB10399CDF8009033465246103051
:101D7000FEF7B8FF434622463946284607B0BDE87D
:101D8000F04F07F0FCBB3146D3E700BF00FE0F0069
:101D90000EB403B503AB014653F8042B044801937A
:101DA00001F022FA02B05DF804EB03B0704700BF07
:101DB000E5950000CA0605D48B064CBF02490349CD
:101DC000FFF7E6BF704700BFA5B10000A4B1000057
:101DD0002DE9F04F89B09A46DDE914739DF84CB0B7
:101DE0000593169B179E069204460D460493BBF17D
:101DF000000F00F0858006F00803079307F0A7FBAB
:101E000006F002090246002849D086492046FFF71D
:101E1000BFFF8046B9F1000F08D016F0440F40D143
:101E200081492A462046FFF7B3FF804406F00103AC
:101E300053B17E4B7E4953F82B207E4B2046002A1F
:101E400008BF1A46FFF7A4FF06F00803002B54D082
:101E5000794B7A4953F82B202046FFF799FF054626
:101E6000069B2BB176491A462046FFF791FF0544A1
:101E7000BAF1000F05D0734952462046FFF788FF9C
:101E800005444544002F49D1049B002B4FD1F30753
:101E900000F1C18031462046FFF78CFFB5E0804657
:101EA000B8E7694B18680028BFD0684B4FF47A79BF
:101EB0001B68B5FBF3F54FF46161B5FBF0F300FB74
:101EC000135509FB05F54FF03C0CB3FBF1F201FB98
:101ED0001231B5FBF0FEB1FBFCF300FB1E550CFB11
:101EE000131109FB05F50091B5FBF0F55849CDE953
:101EF00001E52046FFF74CFF97E706F00805AFE73E
:101F0000BAF1010F06D1002F65D1049B002B7CD0C4
:101F100000250CE0002FF8D04E485DE04E484F49B8
:101F20003B46224606F0C0FE049B002B69D0DFF83A
:101F30003081DFF83091049F3146102F204628BFB2
:101F40001027FFF737FF4FF0000A554546DC059B89
:101F500049461A782046FFF71BFF4FF0010A1AF096
:101F6000070F03D141462046FFF712FF57453CD9E2
:101F7000059B494613F80A202046FFF709FF0AF19E
:101F8000010ABAF1100FEAD1374920464FF0000A92
:101F9000FFF7FEFE5246059B9A5C344B995C11F0AC
:101FA000970F08BF2E2232492046FFF7F1FE0AF1B3
:101FB000010ABAF1100F1DD01AF0070F03D14146E4
:101FC0002046FFF7E5FE57455246E4D841462046F5
:101FD000FFF7DEFEEBE720485D46A0E741462046DE
:101FE000FFF7D6FE0AF1010AAFE722492046FFF7C4
:101FF000CFFEC4E7059B3B440593049BDB1B049386
:1020000099D1BBF1000F7FF442AF204609B0BDE883
:10201000F04F07F0DABA074A05492046FFF7B8FE45
:1020200038E700BFACB10000B0B10000ECAB00007D
:1020300057B70000A7B1000000AC0000D5B1000008
:10204000DBB10000DFB10000780C0020740C002030
:10205000B9B100001B960000E5950000E9310000D1
:10206000ECB10000E4B10000EEB100006FBB000075
:10207000F0B10000EAB100002DE9F0410F884B6893
:102080008E6886B005460C469046C7F382175BB152
:10209000144A9B1A43F3CF01002920DB2078C0F3B8
:1020A000C200FFF789FD03462146608851F8102BD6
:1020B0000197C2F34A22002A01EB0204C0F30B107D
:1020C00008BF00210022CDE90408CDE902140092E6
:1020D00031462846FFF77CFE06B0BDE8F0810023BC
:1020E000E2E700BF5CA8000073B542F20F738B42B9
:1020F00028BF0B4605680F4A04460521684605F0CF
:10210000B3FB63680C495B6806460B22284607F060
:102110004FFA63683246694628465B6807F048FA1A
:10212000636806495B681B22284607F041FA02B043
:1021300070BD00BFB4BA00000FB20000F3B10000E0
:10214000074A00210123904206D8064A01B901231B
:102150001360054B1860704740085B000121F2E7EF
:1021600040420F00740C0020780C0020014B01222B
:102170001A7070479C160020014B002019607047B0
:10218000900C0020024B034801221A7007F01DBA80
:102190009D16002030AC00000148FFF7A5BF00BF2E
:1021A00030AC000010B5064B18680C46FFF73AFB40
:1021B00021460346BDE8104002480F22184700BFE1
:1021C000900C002030AC000010B9074B187070471D
:1021D000064B1B781BB141F2883007F095BEA42056
:1021E000002104F083BE00BF9C1600209D16002035
:1021F0002DE9F843DFF874901D4F80460E46042405
:1022000099F8005095B903F0C3FE2846324641467E
:1022100003F070FE054603F0C5FEE5B101233B70F7
:1022200099F8003073B93046BDE8F883324641462C
:10223000002003F05FFE0546EFE72046FFF7C4FFEE
:10224000651E2C46002003F099FE0028EBD03B7859
:10225000002BF2D1E7E73B78002BE4D0013C20468D
:10226000FFF7B2FF3B78002BCAD1DCE79D160020B8
:102270009C160020014B002019607047A80C00201C
:10228000024B034801221A7007F09FB9AF160020D5
:102290005CAC00000148FFF727BF00BF5CAC00004A
:1022A00010B5064B18680C46FFF7BCFA21460346EA
:1022B000BDE8104002480F22184700BFA80C0020BC
:1022C0005CAC0000F8B5074F0D4604464618B44212
:1022D00001D12846F8BD14F8011BBB6801485B68B2
:1022E0009847F4E778A60000014805F0F5B800BF6C
:1022F0006CAC000038B5044618B90F4B0F485B684A
:1023000098476168B1F5683F10D0B1F5680F0DD0FE
:102310000B4DA9420AD011F46861206807D001462C
:10232000084807F029FE00232360656038BD1422A9
:1023300008F022F9F9E700BF1401002065B200009F
:102340002C5F5CA9AC11002008B520B34368B3F53D
:10235000683F10D101220368BFF35B8F53E8001F71
:10236000002903D143E800200028F7D1BFF35B8F99
:102370000DD1002008BD094A93420AD000684FF0F1
:10238000FF324FF0FF3304F09BF80028F1D00448EF
:10239000F0E70448EEE76FF4E040EBE72C5F5CA960
:1023A000E98FFFFFEA8FFFFF08B5D8B14368B3F5A7
:1023B000683F10D100220368BFF35B8F53E8001F12
:1023C000012903D143E800200028F7D1BFF35B8F38
:1023D0000BD1002008BD074A934208D0006804F0E2
:1023E000E9F8F6E76FF4E040F4E70348F2E7034862
:1023F000F0E700BF2C5F5CA9E98FFFFFEA8FFFFFCA
:1024000010B5044618B91D4B1D485B6898476368B2
:10241000B3F5683F2FD0B3F5680F2CD0194A93421B
:1024200019D1236803BB18484FF0FF324FF0FF3338
:10243000214603F04FFF08B923681BB90F4B13481F
:102440005B68984720681422002108F095F84FF443
:102450006863636008E0B3F5683F0DD83A2B03D09A
:1024600040F6BA629342DED1206807F0CCFD636883
:1024700043F03A03636010BD054AF3E714010020FE
:1024800065B200002C5F5CA9AC1100208BB200008B
:102490003A00003A08B5064906484023142207F0DE
:1024A0005DFDBDE808400449044805F087B800BF59
:1024B000AC0C0020AC11002074AC000088AC000013
:1024C000014910220A60704710ED00E072B64040EA
:1024D00080F31188BFF36F8FBFF34F8F30BF62B6A9
:1024E000BFF36F8F704700BF72B6494081F3118808
:1024F000BFF34F8F20BF80F3118862B6704700BFD3
:102500002DE9F047814600AF0C4600294CD06E46BD
:102510008AB0D1E90012A3686D462748A8464FF05B
:10252000050AC5E90501C5E9072348F810AF2348A6
:10253000424600234FF42151FFF760FBB546D4E932
:1025400003126369AD461E48C5F810A0C5E9050130
:10255000C5E907231948002342464FF42151FFF7EC
:102560004DFBB54688B0E3696D46164AA8464FF064
:10257000030AC5E9052348F810AF10480023424676
:102580004FF4C251FFF73AFBB546A369AD460E4A78
:10259000C5F810A0C5E905230848002342464FF4BA
:1025A000C251FFF72BFBB5462146484603F000FD1C
:1025B000BD46BDE8F08700BFB8B20000E4A8000047
:1025C000E7B2000016B3000025B3000040B20028B7
:1025D00007DB044A4109012300F01F00834042F851
:1025E0002130704700E100E040B200280CDB4309D5
:1025F000064900F01F0020330122824041F82320C9
:10260000BFF34F8FBFF36F8F704700BF00E100E053
:10261000054B420900F01F0053F82220012303FA62
:1026200000F01040704700BF00E100E040B2002819
:10263000A8BF00F1604001F10101B8BF064B4FEAAD
:102640004111ACBF00F5614000F00F00C9B2B4BF4A
:10265000195480F80013704714ED00E030BFFFF705
:10266000FDBF00BF0B4A08B50B4B22F07F029A60FA
:10267000BFF34F8FBFF36F8FD3F8882022F470021F
:10268000C3F8882003F052FD04F0C2FC00F00CFCFB
:1026900003F09EFD0000000000ED00E0094A0A4939
:1026A000936809689967094958674B6843F08053F4
:1026B0004B60002383F31188BFF36F8F9368986F8B
:1026C000704700BF881400205CAE000000ED00E001
:1026D00015498A684FF030001044EFF3098C80E808
:1026E000F01F202080F31288BFF36F8F0F4F4FF041
:1026F00000664A698A603E604FF0700414192068D1
:102700000B4C2060506F0023536780F3118804B591
:10271000104600F077FCBDE8044002F1300090E87C
:10272000F01F8CF3098870478814002004ED00E046
:10273000C81100201EF0040F0CBFEFF30880EFF368
:102740000980816911F8021C0229FFD001B506F049
:1027500077FF01BD42F8203C009B42F81C3C0A492F
:10276000019B42F8183C029B42F8143C21F0010105
:102770004FF0807342F8043C42F8081C0023203AD2
:1027800002654367704700BF45140000094A0346CD
:10279000906870B113F1160F006E05D0A0F14002E1
:1027A0009A4205D8834203D2814228BF0020704755
:1027B000002070478814002008B514460A4A0B4BC5
:1027C0009060026F1A600D4600F01CFC204685F3F5
:1027D0000988002163B681F31188BFF36F8F00224F
:1027E0000023FEF72FFE00BF88140020C811002030
:1027F00001B5EFF30580A0F110004FEAC0000449D5
:10280000014409C99847BDE8014002490847000052
:10281000DCA6000075280000114B124A2DE9F0419A
:10282000D518DFF84480013DB5FBF3F55D430F4B50
:1028300008EB0304013CB4FBF3F403FB04540E1B4C
:1028400007460B49304607F089FE701942460021C1
:10285000083E07F091FE3E6704F10800BDE8F081F4
:10286000010000000000000004000000040000005F
:1028700024A90000044B99685869884203D0034991
:102880004FF080520A6070478814002004ED00E089
:102890002DE9F04186B0064600AF0D46474B7B61FF
:1028A00002244FF4825146483C6107F1100206F0C1
:1028B000D6FE444B9B6AD9046DD5434B4048C7E9CB
:1028C000044307F110024FF4825106F0C8FE1720AE
:1028D0003C4B9B6A1A050BD53C4B7B610223384865
:1028E0003B6107F110024FF4825106F0B8FE182048
:1028F000344CA36A9B0523D5E846354B7B61022304
:102900002F483B6107F110024FF4825106F0A7FEF9
:10291000A36BA26A100412D588B06A462D492848D4
:10292000C2E90513032342F8103F4FF4C25106F0E9
:1029300096FEC5461EB1A36A23F40043A362192084
:10294000204B9B6A59050BD5234B7B6102231C4806
:102950003B6107F110024FF4825106F080FE1A200D
:10296000184B9A6AD20518D51C4B7B610223144878
:102970003B6107F110024FF4825106F070FE1B20FC
:10298000104A936A43F47F439362183700232B70F5
:10299000BD46BDE8F08116209AE79B6A9B04EFD5FF
:1029A0000F4B7B61022306483B6107F110024FF495
:1029B000825106F054FE1C20E2E700BF53B3000032
:1029C000E4A8000000ED00E069B300007AB3000065
:1029D0008DB30000A6B30000BBB30000D6B3000067
:1029E000EEB3000010B586B0364B3748059304AA05
:1029F00002244FF48251049406F031FE334B9B6A5B
:102A00009A015DD5324B304804AA4FF48251CDE98A
:102A1000044306F024FE1E202C4B9B6ADB010AD5E2
:102A20002C4B2948059304AA02234FF482510493A6
:102A300006F015FE1F20254B9B6A1C030AD5264B6A
:102A40002148059304AA02234FF48251049306F00F
:102A500006FE21201D4B9B6A59030AD51F4B1A48BD
:102A6000059304AA02234FF48251049306F0F7FD64
:102A70002220164B9B6A9A030AD5194B12480593DC
:102A800004AA02234FF48251049306F0E8FD2320A8
:102A90000E4B9B6ADB030AD5124B0B48059304AA25
:102AA00002234FF48251049306F0D9FD2420074AF3
:102AB000936A6FEA03436FEA1343936206B010BD53
:102AC0001D20A9E71DB40000E4A8000000ED00E00F
:102AD00035B4000048B4000062B4000080B40000C7
:102AE000A5B40000BFB400002DE9F04786B08146D0
:102AF00000AF8A469046514B7B61022450483C61AE
:102B000007F110024FF4825106F0A9FD4D4B9B6A6C
:102B1000DE0645D54C4B4A48C7E9044307F110028D
:102B20004FF48251112406F09AFD464B9B6A1D0713
:102B30000BD5464B7B61022341483B6107F11002F4
:102B40004FF48251122406F08AFD3E4DAB6A98077D
:102B500028D56C463E4B7B6102233B614FF482518A
:102B6000374807F1100206F07AFD6E6BAB6A190662
:102B700060D588B06A46374B3148C2E90536032331
:102B800042F8103F4FF4C25106F069FDA546BAF174
:102B9000000F03D0AB6A23F08003AB62132403E081
:102BA0001024C2E76FF01506264B9B6ADA070BD597
:102BB000294B7B61022322483B6107F110024FF44D
:102BC0008251142406F04BFD1E4B9B6A9B060BD5CD
:102BD000224B7B6102231A483B6107F110024FF43C
:102BE0008251152406F03BFD164B9A6AD50602D495
:102BF0009A6A90070AD55B68190507D54946304699
:102C0000FFF7C4FD10B180F3098802240D4B9A6AC6
:102C1000920642BF5A6A22F400525A629A6A42F0FD
:102C2000FF029A6220460023183788F80030BD461C
:102C3000BDE8F0876FF01506B0E700BFEAB400000A
:102C4000E4A8000000ED00E000B500007AB3000049
:102C500033B500004BB5000061B50000EEB30000D5
:102C60002DE9F0437A4B8BB0D3F8048000AF0446D3
:102C7000C8F30805002686F31188BFF36F8F02F0B2
:102C80007F43B3F17F4F0ED102F00C03082B19D113
:102C9000704BFB6102237048BB6107F118024FF4CF
:102CA000825106F0DCFC002634460023FB71EB1E4B
:102CB000092B00F2AD80DFE803F00AA0A39CABABC8
:102CC000ABABABA610074CBF0C460126EDE7E946BF
:102CD000624BFB614FF0020807F118025E48C7F82B
:102CE00018804FF4825106F0BAFC0023584DFB7156
:102CF000EB6A9A070BD55A4BC7E90683564807F18A
:102D000018024FF4825106F0AAFC002342E0EB6A5D
:102D1000002B01DA534BEFE7EB6A5B00F5D5524B22
:102D20004D48C7E9068307F118024FF4825106F0B7
:102D300096FC6B69A26943F480736B61BFF34F8F9C
:102D4000BFF36F8F6B6932F8022C23F480736B61D1
:102D5000BFF34F8FBFF36F8F4DF602739A4209D0C6
:102D6000AB6ADBB2002B37D0FA1D01212046FFF7FA
:102D7000BBFE40E088B023686A463C493648C2E959
:102D80000513032342F8103F4FF4C25106F067FCCD
:102D90002368CD46FA79DAB907F1080504F1200C69
:102DA000206861682A4603C2083464451546F7D195
:102DB0007A6A002E47D0C2F3080121B96FEA522285
:102DC0006FEA42227A6207F108011846FFF798FB82
:102DD0002C37BD46BDE8F083AB6A13F47F4F04D0B7
:102DE000F91D0120FFF754FD05E0AB6AB3F5803F04
:102DF0008BD3FFF7F7FD0346CCE7FA1D0021B5E7BB
:102E0000F91D0020EEE71A4BFB610223BB6175E759
:102E1000184A194B18F4F87FE8468AB018BF1346D1
:102E20006A4616490C48C2E905134FF4007313842F
:102E3000103D134BD5614FF4115142F8103F06F08D
:102E40000EFCC54661E722F4FF7222F00102B9E7E9
:102E500000ED00E0AEB50000E4A80000D9B5000028
:102E6000F0B5000011B600001FB600003EB600002D
:102E70005AB6000095B5000080B500007EB600008F
:102E800004000001024A536943F010035361704784
:102E900000ED00E0EFF30880EFF3098101B5724621
:102EA000FFF7DEFE01BD00BF044800232021C21849
:102EB0000133302B82F80013F9D1704700E100E0B4
:102EC000002080F31488BFF36F8FFEF7FBFB002018
:102ED0000D490860BFF34F8F0C4880F3088800F05D
:102EE0003DF8202080F3118809484FF40461401810
:102EF00080F30988EFF314800221084380F31488DB
:102F0000BFF36F8FFFF7AEFB94ED00E0002C0020C5
:102F1000401E0020BFF34F8F0549064BCA6802F4DC
:102F2000E0621343CB60BFF34F8F00BFFDE700BFEC
:102F300000ED00E00400FA050749D1F890200023D5
:102F4000C2F307221846934200DB7047C1F898305D
:102F5000C1F8A0000133F6E700ED00E008B572B655
:102F6000002383F31388FFF7E7FF144B4FF0FF3282
:102F7000C3F88020C3F88420C3F88820C3F88C20CD
:102F8000C3F89020C3F89420C3F89820C3F89C207D
:102F9000C3F88021C3F88421C3F88821C3F88C21A9
:102FA000C3F89021C3F89421C3F89821C3F89C2159
:102FB00062B6BFF34F8FBFF36F8F08BD00E100E033
:102FC000084B9B6883420BD1EFF3058343B1064B5B
:102FD0005A6842F080525A605A6A22F400425A6299
:102FE00003F0A4BF8814002000ED00E0024B034A68
:102FF0000348012100F092B80000042000000020E6
:1030000098AC0000026E054B403A1A60044A402119
:10301000C3E901121846012100F08AB8CC11002042
:1030200000000B152DE9F041DFF8B4E09C4600AF3D
:10303000154600238B421ADA4468002C4DD0BCF1AF
:10304000000F1DD0661E344215D06C4688B06A460B
:103050002449C2E90513032342F8103F2248002304
:103060004FF4C251FEF7CAFD6FF01505A54628467C
:10307000BD46BDE8F0811F2CE7D902681642E4D1B5
:10308000202C026886685FFA85F814D9B4F1004FE5
:1030900013D8013CB4FA84F4C4F11F046400B8F1FD
:1030A000070F46EA04060AD96C4688B06A460F4BF9
:1030B000C2E90535CFE70824F1E73E24EFE722F027
:1030C0001F022A4342F0100246F00106CEF8985043
:1030D000CEF89C200135CEF8A06001330C30A9E772
:1030E00000ED00E095B60000DCA80000B8B60000D6
:1030F000044B0522C3F89420BFF34F8FBFF36F8FAB
:10310000704700BF00ED00E0BFF35F8F024B00226D
:10311000C3F89420704700BF00ED00E010B5034CE9
:1031200001232278FFF77EFF207010BDB01600202B
:1031300008B5094A00231278FFF774FF10F1160F43
:1031400003D0064B0022072800DD08BDC3F8980015
:10315000C3F8A0200130F6E7B016002000ED00E033
:1031600014490868082810B521D8FFF7CDFF124C84
:1031700049680022904201F10C0105D10F4B1870F3
:10318000FFF7B6FF002010BDC4F8982051F80C3CA2
:1031900023F01F03134343F01003C4F89C3051F88D
:1031A000043C43F00103C4F8A0300132E2E74FF0E1
:1031B000FF30E8E7A8AC000000ED00E0B01600200A
:1031C00008B5024B1B689847002008BDD8110020A5
:1031D000034B044A1860937843F0020393707047DE
:1031E000D811002028000020F0B587B007460E4611
:1031F00014460021102268461D4607F0BDF902233F
:103200008DF802302A46054B019321466846CDE9E8
:10321000047604F0F1FB07B0F0BD00BF6596000036
:1032200008B50649064821F00701C1F1005202F530
:10323000802205F0CAFD002008BD00BF93300020A9
:1032400080300020024B0122C3F840250020704747
:1032500000E0014020B1034B800143F00103184717
:10326000704700BF30A90000084B70B5C31A0D4667
:1032700007499B10044659430648402206F019FAB4
:103280002B4601462046BDE870401847F01100204B
:10329000B76DDBB63CA6000073B50C4C0C4A40235E
:1032A000041B00930D460B460A49A41061430646D1
:1032B000094806F02AFA011E05DA30462B4602B00C
:1032C000BDE87040184702B070BD00BFF01100208B
:1032D00075970000B76DDBB63CA6000010B54FF047
:1032E0002003EFF3118483F31288BFF36F8F074A33
:1032F000136823F00201DB07116002D4012006F0FD
:10330000FDFC84F31188BFF36F8F10BD40120020C5
:10331000002270B5012104461046FFF787F91148D5
:1033200001F060FE104B984218D1206900F09CF922
:1033300006F09FFC26690D49304605F0D3FD0028B4
:103340000BDB012535642469084904F11C0005F0F4
:10335000C9FD002801DBE564002070BD6FF00400AA
:10336000FBE700BFA53300000000AD0BC8AC0000B8
:1033700070B501460C2309484B43C418D4E90E56D6
:10338000403300221844A26306F080F92DB1324682
:103390002B460348BDE87040184770BDF01100206F
:1033A0003CA60000012810B504460AD004280CD021
:1033B00078B9084B1B6C5B070BD1BDE81040FFF7D9
:1033C000D7BF00F05FF92046F7E7BDE8104000F0F6
:1033D00067B910BDF011002008B54FF02003EFF3DE
:1033E000118183F31288BFF36F8F124A136843F081
:1033F00002001060DA0708D481F31188BFF36F8FE1
:103400000120BDE8084006F041BC4FF08043D3F8EE
:103410000C24D3F80C34DB07EED5074806F036F958
:1034200081F31188BFF36F8F0020BDE80840FFF7DC
:103430009FBF00BF40120020301200201FB50022A5
:103440000123CDE90223094ACDF800D06B46CDF81F
:1034500004D006F088F9002805DB4FF480420023F1
:10346000684603F007F905B05DF804FB8D9700008E
:10347000024AC3B21C2003FB00207047F011002059
:10348000F8B52849BFF35B8F0646012251E8003F9B
:1034900041E800200028F9D1BFF35B8F33B92249FE
:1034A00022484B60CB608A6005F02FFD731E012B14
:1034B0001DD806F087FD0446D0B91D4B1B78BBB163
:1034C0004FF080430222C3F8082305464FF080479F
:1034D000D7F81824D7F81834D20313D59B0701D096
:1034E000012E0FD1C4B185F31188BFF36F8FF8BDE2
:1034F0004FF02003EFF3118583F31288BFF36F8F32
:103500000124E3E71CB12846FEF7EEFFE0E70021C7
:10351000212003F0EBFCDBE74FF080430222C3F8ED
:103520000423E4E7EC110020DC1100200C12002041
:10353000C41A00200D4BBFF35B8F012253E8001F1C
:10354000002903D143E800200028F7D1BFF35B8FA7
:103550000AD107490023CB60064B4B6003238B60E5
:10356000054B186805F0D1BC704700BF6012002001
:10357000481200203D3600004412002007B500220A
:103580000023CDE9002308484FF40032002303F064
:103590000BFF064B186805F010FD054B00221A6062
:1035A00003B05DF804FB00BFC001002044120020FE
:1035B00060120020F7B51C4E1C4CB7681C4DFB6810
:1035C0003A213046984740B1002323702B8001F008
:1035D0001BFD0123237003B0F0BD0C213B696A463B
:1035E000304698470028EFD1124A019B93FBF2F333
:1035F000009A217803EB82031BB2B5F90020002961
:10360000E4D09A1A002AB8BF524212B2012ADDDC75
:10361000094A1368013901332170136003B0BDE812
:10362000F040FFF7ABBF00BFB4A60000B11600200A
:103630009816002090D003005812002008B50748C3
:1036400006F067FC28B901F0DFFC054B01221A7077
:1036500008BDBDE80840034803F048B9B4A600001F
:10366000B116002038000020034B044A18600023E4
:103670001360034A13607047441200205C1200205C
:1036800058120020024B00221A70FFF753BF00BFF0
:10369000B1160020014806F016BE00BFC001002090
:1036A000024A136801331360FFF768BF5C12002001
:1036B00008B5074806F02DFC38B10648FFF788FD2D
:1036C0000448FDF7B9FE002008BD6FF01200FBE7CB
:1036D00078A60000D93600000A2838B5074D044600
:1036E00004D1AB680D215B6828469847AB68034856
:1036F0005B68E1B29847204638BD00BF78A600005D
:1037000030B54068057B01F01F04B2F5001F85B09D
:1037100044EA451405D1204601F07EFF002005B0A3
:1037200030BD0025B2F5800FCDE9025514D1B3F1BB
:10373000007F0CBF042305238DF8083000231946B1
:1037400002AA204601F084FD234B98423DD101217D
:10375000204601F013FFE1E7B3F1C06F27D0B3F1CA
:10376000007F14BF012302238DF80830836823FAF9
:1037700001F111F00101E1D1B2F1A07FDED104F03D
:103780001F03620903F5E07313D0012A20D1134A05
:1037900052F82330DB07D1D40DF107052946204626
:1037A00001F096FE0E4B984206D00395C6E7032320
:1037B000DAE74FF0A042EBE7284601F0D9FE064BCE
:1037C0009842F2D06FF00B00A9E76FF01500A6E762
:1037D00051F82330FFDE00BF0000AD0B00030050A6
:1037E0000400AD0B10B501F0B3FE044668B901F05A
:1037F00087FE084B98420AD10748214601F062FE35
:10380000224605210620FEF711FF002010BD6FF0B3
:103810000400FBE70000AD0B1D380000420970B545
:10382000034602D0012A17D070BD0D4E326951688F
:103830000029F9D003F01F0301250C689D400029E1
:10384000F2D08A682A4002D04B68304698472CB1A3
:10385000236821461C46F2E7024EE7E72346F8E7D5
:1038600064A6000050A600002DE9FF4147683B7B9D
:1038700001F01F0545EA43150E4628460DF10701E4
:10388000144601F025FE14F4403F80460DD1284631
:1038900001F0E8FE3D4B984503D19DF8070001F08B
:1038A00061FE002004B0BDE8F0810023194602AAA1
:1038B0002846CDE9023301F0CBFC344B984214D1B9
:1038C000804503D19DF8070001F04CFEA3034ED5BF
:1038D00040F206332340B3F5837F1AD00DD8062B70
:1038E00018D005D8B3B1022B33D06FF01500D9E74B
:1038F000B3F5807FF9D101230CE040F2022293421C
:1039000029D0B3F5407F28D0B3F5007FEDD1022355
:1039100000E007238DF8083084F48033C3F30043BC
:10392000E0068DF8093054BFC4F34013032321038C
:103930008DF80A3013D57A680123B340C2F80835F0
:10394000002202A9284601F043FD104B9842A8D05E
:10395000CBE70423DEE70523DCE70323DAE7620392
:1039600041BF01237A68B340C2F80C35E8E7E306AB
:103970004FF0000354BFC4F3401403241A4602A9B5
:1039800028468DF8084001F063FCDEE70000AD0B2F
:1039900008B543681B68D3F80805D3F80C1502F086
:1039A0000BFA034B984214BF6FF00F00002008BDC4
:1039B0000000AD0BB0B5044682B0002200AF01217B
:1039C0000320FEF733FE63689D693A1D00212846F7
:1039D00005F083FF002827DB7B682A6819791868BF
:1039E00000F05EFB00281FDB60682369114A00F1CC
:1039F000080102F087F8104B984218D023686C46F3
:103A000088B06A460D49C2E905134FF400739383E9
:103A10000B4B42F8103F0B4800234FF4E251FEF7E6
:103A2000EDF86FF00F00A5460837BD46B0BD002089
:103A3000FAE700BF493A00000000AD0B3AB70000BA
:103A400003000001ACA800000378012B08D0022B72
:103A500008D04BB9054B0B6201F1100002F0E6BD36
:103A6000034BF8E7034BF6E7034BF4E70000AD0B1D
:103A70000100AE0B0200AE0B0100AD0B10B511F052
:103A800001034268046986B00FD1C1F342000128E6
:103A90000ED0022815D00D4A0592022204920C483D
:103AA00004AA4FF48251FEF7A9F86FF0150006E062
:103AB00013684FF0CC72C3F824250020616206B071
:103AC00010BD13684FF0CD62F5E700BF5AB7000094
:103AD000ACA800002DE9F04F8BB000AF06460C46B5
:103AE0009246BB60D0F80490D0F810804FF0FF32BF
:103AF0004FF0FF33404602F0BDFD08F11003FB60BC
:103B00000022002308F1100002F0B4FD484602F044
:103B10003DF8DFF804B10025554501D3002453E0FA
:103B2000237A3B6013F0080172D1122207F11600CC
:103B3000796006F021FD3B686068B968B86103F000
:103B400001022068797513F0020F79683A753862BE
:103B500016D10AF1FF33AB4202D9237D5B0711D5A1
:103B6000002A55D1202207F11401484602F03AF804
:103B7000584509D0294B984224D16FF00F0423E017
:103B80000A46F0E74022EEE70023F8684FF480424F
:103B900002F070FD034610B36C4688B06A46204BB5
:103BA000C2E90535032342F8103F1E4800234FF4B5
:103BB000C251FEF723F84846A54601F0F7FF30460C
:103BC000FFF7E6FE6FF00404484601F0EFFF4046C1
:103BD00002F02CFD20462C37BD46BDE8F08FD8F80A
:103BE0002010594504F10C0410D06C4688B06A4688
:103BF0000D48D561C2E90501042142F8101F0948AA
:103C00004FF40151FDF7FAFFA546DBE7013583E7E5
:103C10006FF08504D8E700BF0000AD0B0B00AD0BC3
:103C20006CB70000ACA8000096B70000F0B50569BD
:103C3000446895B009902860206806F06AF930B9A8
:103C40002C4805F089F86FF0150015B0F0BD236819
:103C50002948196805F080F809A806F05AF9099B67
:103C60001968F8B9254805F077F805F10C0006F059
:103C7000CAF90122002105F1B80006F0CBF9237A38
:103C8000002B00F05381E06806F043F960B91C4B4B
:103C900013931C48022312AA4FF48251129305F089
:103CA000E1FDD0E71848DEE708228DF82B200DF162
:103CB0002B022068A3880E9200228DF840200CAAC7
:103CC000119206220126129207220F968DF84C209F
:103CD00002220EA905F0BCFDD0B10C4B094813938C
:103CE00012AA02234FF48251129305F0BBFD6FF02C
:103CF0000400AAE7D5B70000F5B700000DB8000032
:103D000039B80000B4A8000025B800004FB8000082
:103D100041F27D222068A388ADF82C200BAA0E92D8
:103D200002220F928DF8402032460EA905F090FD38
:103D3000024620B1099B8948196805F00DF843F245
:103D40007D422068A388ADF82C200BAA0E92022297
:103D50000F928DF8402001220EA905F079FD024650
:103D600020B1099B7E48196804F0F6FF4FF2070363
:103D70000BA92046ADF82C3005F077FD48B1794B02
:103D800013937948022312AA4FF48251129305F03B
:103D900069FD40F605730BA92046ADF82C3005F0FF
:103DA00064FD48B1714B13936F48022312AA4FF47C
:103DB0008251129305F056FD4FF603730BA920466E
:103DC000ADF82C3005F051FD48B1694B13936648AE
:103DD000022312AA4FF48251129305F043FD4FF2D1
:103DE00013030BA92046ADF82C3005F03EFD48B179
:103DF0005F4B13935C48022312AA4FF48251129333
:103E000005F030FD40F212530BA92046ADF82C30DE
:103E100005F02BFD48B1534B13935348022312AACC
:103E20004FF48251129305F01DFD47F614530BA970
:103E30002046ADF82C3005F018FD48B1494B1393DE
:103E40004948022312AA4FF48251129305F00AFD49
:103E500044F20F030BA92046ADF82C3005F005FD08
:103E600048B1404B13934048022312AA4FF48251A9
:103E7000129305F0F7FC40F609730BA92046ADF844
:103E80002C3005F0F2FC48B1364B13933648022330
:103E900012AA4FF48251129305F0E4FC0A230BA9F5
:103EA0002046ADF82C3005F0E0FC48B12D4B1393C3
:103EB0002D48022312AA4FF48251129305F0D2FC2E
:103EC000638AE068217C43F480320769D0F808C037
:103ED00013F0010F4FF001063B6806FA01F614BF1C
:103EE0003343B3433B60DCF800309847237C2148E0
:103EF000012202FA03F3C5E90B03E0688368DB697A
:103F000005F1280103B19847E068217C04698268C3
:103F1000246801238B40234218BF4FF080639469CB
:103F200008BF4FF000734FF0A072A047002200239B
:103F3000CDE9062300246FF00D03CDE90334CDE96C
:103F400001440D4B00954FF4C87205F5A07105F1C1
:103F5000380002F02DFA204677E600BF72B8000064
:103F60008BB80000E9B80000B4A80000A5B80000B4
:103F7000A4B800005D9800007D3F00002DE9F04FDF
:103F8000DFF8F0808BB0044600AF04F1B8094FF0C1
:103F9000FF324FF0FF33484602F06CFB4FF0150B39
:103FA0004FF0010A484602F08DFB236887F807B0FE
:103FB0005E681D693068B388FA1DC7E9042A0022CB
:103FC0003A76BA1DC7E9072A072287F82420022279
:103FD00007F1100105F03CFCA0B16D4688B06A46BF
:103FE000254BC2E90530032342F8103F4FF4C4517A
:103FF000404605F037FCAD46002140F2676002F014
:1040000075FFCFE74FF60C7307F1080130463B818F
:1040100005F02BFC50B1194B7B6202233B6207F188
:1040200020024FF48251404605F01CFC05F10C06BD
:104030004FF0FF324FF0FF33304602F041FAB879CB
:1040400007F1100207F10C0105F031FCD5F82490BE
:10405000B9F1000F04D0D7E90312286A0023C8473A
:10406000304602F0A7FA002140F2676002F03EFFFE
:104070008BE700BFB4A80000BBB80000E6B80000A2
:10408000036803F01F025B09026004D0012B0348A0
:1040900018BF002070474FF0A04070470003005049
:1040A0002DE9F04FDFF8849185B01546824600EB8C
:1040B00081014FF00108514503D1002005B0BDE852
:1040C000F08FDAF8003003F07F04C3F343277F2C2E
:1040D0004FEA134308BF4FF0FF34222B00F2A380B6
:1040E000DFE803F012232B442E3544A1A1A1A14700
:1040F00073A1A1A1A1A1A1A1A1A176818487A1A160
:10410000A18A909396999C00C5F80C45601C1BD021
:1041100003A80394FFF7B4FF039B08FA03F3C0F866
:10412000083501264FF0010B2CE0C5F81445631C3F
:104130000AD000264FF0000B24E0C5F80845E5E75B
:10414000621CC5F808456CD10AF1040AB3E7631C88
:10415000C5F80C45F8D0012603A80394FFF790FF9B
:10416000039B08FA03F3C0F80C35DBE7C5F81045EC
:10417000DDE7C5F80845002FD9D1671CE4D000263B
:10418000B3460627DAF80030019303F40052002A00
:1041900003A81CBF01264FF0000B0394FFF770FF2C
:1041A000039A019B00EB8200C3F3C114D0F80027EF
:1041B0003B0243EA840343EA0B0302EA0902134386
:1041C00043EA4603C0F80037BEE7C5F80C45D2E71E
:1041D000C5F86045661CDAF80030B5D0C3F380330B
:1041E000002BB8D094E7C5F86445F3E7C5F86845F7
:1041F000F0E7C5F86C45EDE7C5F82445621CA3D08F
:10420000012697E7C5F8284580E7C5F83045F5E76A
:10421000C5F83445F2E7C5F83845EFE7C5F83C4541
:10422000ECE7002698E76FF0850047E7F0F8FCFF21
:10423000014B01221A60704700C000400C2903693D
:104240000BD15B6A064907484B4393FBF0F100FB37
:10425000113311605360002070476FF08500704784
:1042600090D0030040420F00044B00690022C3F8C5
:104270000021D3F8003102F0D9B900BF00C00040DE
:104280007FB50569AB6A63B33A2901D00C292BD1FC
:1042900005F110064FF0FF324FF0FF33304602F0C9
:1042A0000FF9134B0193A86A032300246946039472
:1042B000029304F02AFE4FF0FF324FF0FF332846FE
:1042C00002F0D8F9A86A04F078FE0A4BD3F8082562
:1042D0006A6201225A60304602F06CF9204604B04E
:1042E00070BD6FF00A00FAE76FF08500F7E700BFD6
:1042F0003142000000C0004010B504690020FFF703
:10430000B7F8A0624FF0FF320021204605F082FE90
:1043100004F1100005F077FE002201210C20FEF7C9
:1043200085F90C20FEF752F9024B0122C3F8042351
:10433000002010BD00C0004010B5036900201860C7
:1043400003293DD8DFE801F002121518B3F918105F
:1043500058691D4C414391FBF4F004FB10111060AF
:1043600051601A6801321A60002010BDB3F958106C
:10437000EEE7B3F99810EBE75869B3F91810414329
:10438000114891FBF0F400FB14111460516019689E
:104390005C692C3133F91110614391FBF0F400FB9F
:1043A00014119460D16019685C694C3133F91110B3
:1043B000614391FBF0F400FB141114615161D0E7EB
:1043C0006FF08500D1E700BF40420F002DE9F041BA
:1043D00082B0D0F810804668C8F8040000AF0446E8
:1043E000306805F096FD20B933682848196804F054
:1043F000B3FC204600F052F818B12168244804F0BC
:10440000ABFCD8F80830FA1D9B681321204698476A
:10441000051E16DA6C4688B0FB796A461D49D361E1
:104420000423C2E9051542F8103F1B4800234FF44E
:104430000151FDF7E3FBA54628460837BD46BDE818
:10444000F08100213A463046397005F070FA78B9AB
:1044500050233A1D172130463B7105F051FA3B7845
:104460003A4643F00103152130463B7005F048FA07
:104470004FF47573C8F81430D8F808300622DB689A
:104480001521204698470025D6E700BFE8AF000079
:1044900030B9000056B900005CA8000010B54368B0
:1044A0000469186805F035FD28B9054804F054FC86
:1044B0006FF0120010BD034BA3600020FAE700BFAD
:1044C00092B9000000AE0000F0B54B79012B26D068
:1044D000032B21D110258B79032B1DD1CE790EB161
:1044E000012E19D10A7912B1022A15D10E220B68B8
:1044F0004468B3F5164F276867D02DD8B3F5165F1B
:1045000066D016D8B3F5966F64D00AD8B3F5967F07
:1045100063D0B3F5167F63D06FF0850054E00025BB
:10452000D9E7B3F5166F5ED0B3F5965FF4D1384B8B
:104530003CE0B3F5E14F59D007D8B3F5615F57D0F0
:10454000B3F5964FE8D1334B30E047F61224A3423F
:10455000E2D14FF4000329E0B3F5613F4AD013D80C
:10456000B3F5963F49D009D84DF6C024A34246D0B2
:10457000B3F5614FD0D14FF46B0317E0B3F5E13FD2
:10458000CAD14FF0EB7311E0B3F5612F3AD008D8E0
:10459000214CA34239D0B3F5E12FBDD14FF0E863F0
:1045A00004E01E4CA342B7D14FF080530469C7F812
:1045B0002435436835431B682A43C3F86C2503C977
:1045C000231D83E803000020F0BD4FF41D03EDE739
:1045D000134BEBE74FF49E23E8E74FF4A033E5E7F6
:1045E0004FF41C33E2E74FF41D23DFE70D4BDDE70B
:1045F0000D4BDBE74FF06C73D8E70C4BD6E74FF46D
:104600006503D3E74FF07063D0E74FF08063CDE7E9
:1046100000B0130000A04E0090D0030040420F00F5
:104620000050270000C0750000F03A0000903A01E9
:104630002DE9F043002287B0804601210220FDF7DA
:10464000F5FF0220FDF7C2FFD8F80470D8F810601B
:104650003C680021C4F80015C6F80080D7F80C901B
:104660006A46484605F039F9051E25DB009BD9F856
:10467000002019791868FFF713FD051E1CDB311D9A
:104680004046FFF721FF0546B0B97B68990723D55F
:1046900006F1180001F0FAF8234B984210D0234B92
:1046A00005930223049322482B4604AA4FF4825117
:1046B0006FF00405FDF7A2FA284607B0BDE8F083C5
:1046C000307E04F10C0204F5907105F0C8FA337ED7
:1046D0000120984000F01EFC0823C4F800353B7A06
:1046E00053B9C4F81031D4F810317369C4F83435B3
:1046F0000123C4F8383523607B689A075CBF4FF408
:104700008073C4F804337B68DB0644BF4FF4800336
:10471000C4F804333369C4F844350023C4F8483579
:104720000123A360E360C7E70000AD0BAAB9000056
:10473000FCA80000F8B5044607690D4605F042FCE8
:10474000B0B92E4B1B789BB16426606805F020FA47
:1047500000BB012005F081FA013EF6D100212120A5
:1047600002F0C4FBF0E786F31188BFF36F8FF5E723
:104770004FF02003EFF3118683F31288BFF36F8F9E
:104780006068314605F004FA90B986F31188BFF3EA
:104790006F8FEDE74FF02003EFF3118683F312885C
:1047A000BFF36F8F6068314605F0F2F90028DAD068
:1047B0003B691D70626838691368C3F844050120BD
:1047C000C3F848050020C3F82001D3F82051C3F8EE
:1047D00058015268D3F85801D20608D562681268A9
:1047E0000820C2F800054FF48002C3F80423012218
:1047F0009A6081F31188BFF36F8FF8BDC41A00204F
:1048000070B5012383400E4ABFF35B8FDC4352E84F
:10481000001F01EA040542E80056002EF7D1BFF35D
:104820005B8F4FF4803282400648C0F80823BFF304
:104830005F8FBFF36F8F0B4214BF0120002070BD4C
:10484000901300200010014070B40E49D1E90034EB
:10485000D01AC31844F1000422F07F46C1E90034A5
:10486000A6F50013B3F5400F09D2074B1B681A0ACF
:104870001B069C19054B42F10005C3E9004570BCBD
:1048800002F09CBC900A002094130020980A00209B
:1048900011B3BFF35B8F0123104A834052E800CF6E
:1048A0004CEA030C42E800C10029F7D1BFF35B8F4B
:1048B0000B4A4FF480338340C2F80433094BBFF3F3
:1048C0005B8F1B68BFF35B8FC340DB0742BF064BA8
:1048D0004FF40032C3F80021704700BF901300204E
:1048E000001001408C13002000E100E00D4B18681F
:1048F000010A0006BFF35F8F0B4BD3F8043518187D
:1049000041F10001B3F5801F0AD2084BD3E900231F
:10491000904271EB030303D210F1807041F100016A
:10492000704700BF9413002000100140980A002037
:104930002DE9F04F85B016461F469DF840A004466D
:10494000FFF75EFF0190FFF7D1FFB04271EB070365
:1049500054D23E4B301A67EB0101984271F10001CD
:104960004FD23B4B03EB0413D3E902239F4208BF12
:1049700096425ED037494FF4803804F1500508FA6A
:1049800004F8AD00C1F848832046ADB205F049F9FE
:1049900026F07F4B05F1804504F5A87305F58835B1
:1049A000DC464FF003090293029A2CF07F4341F852
:1049B0002230C1F84483D1F80435274A6FF0020051
:1049C000C01A604420F07F40904232D9286868B114
:1049D000D1F804350393A3EB0B0020F07F40B0F532
:1049E000000F26D9204605F01CF9039BBAF1000FF1
:1049F00007D109EB030C09F10109D5E7BAF1000F62
:104A000009D06FF0150520460199FFF741FF2846B0
:104A100005B0BDE8F08F0123104ABFF35B8FA340C0
:104A200052E8000F184342E800010029F8D1BFF313
:104A30005B8F07490E98230101EB0412C8500F9BAE
:104A40005360C2E902670025DDE700BF0100800076
:104A5000800A002000100140FDFF7F008C13002021
:104A60007FB51C4C1C4BC4F80833C4F848331B4BAF
:104A700000254FF0FF304FF0FF31C4F80855C3E96F
:104A800002014FF48033C4F80433154B02264FF46F
:104A900000320121C4F804631120C3F880212A46A2
:104AA000FDF7C4FD1120FDF791FD0E4A0123A3601F
:104AB000236013600C4B0D4A0093CDE90155002390
:104AC0002846FFF735FF3046FEF7DAFC284604B0EB
:104AD00070BD00BF0010014003000F00800A0020DD
:104AE00000E100E09013002049480000FFFF7F0034
:104AF0002DE9F7432F4CD4F8043399070BD5D4F89C
:104B0000043143B12C4A0023C4F80431D4F80431F1
:104B1000136801331360D4F80433DA032AD5BFF3E2
:104B20005B8F264B53E8002F22F0010143E8001071
:104B30000028F7D1BFF35B8FD30702D4D4F84031FC
:104B4000C3B10025C4F84051D4F84031FFF7CEFE80
:104B50004FF02003EFF3118283F31288BFF36F8FBE
:104B6000174BD3E90267B042B94106D282F31188EC
:104B7000BFF36F8F03B0BDE8F0834FF0FF384FF005
:104B8000FF39C3E90289D3E900101D604FF4803377
:104B9000C4F84833C4F84051D4F8403182F3118846
:104BA000BFF36F8F0029E5D0009032463B46284680
:104BB0008847DFE700100140941300208C13002089
:104BC000800A00201FB5431C23D0012823DD134A8F
:104BD000134B9042D4BF04461C46FFF787FE114B8F
:104BE0000F49D3E90023801AB0F5000F28BF002435
:104BF00004448C4228BF0C46A2180B4900914FF088
:104C00000000CDE9010043F10003FFF791FE04B07D
:104C100010BD034CE1E70124DFE700BFFEFF7F008A
:104C2000FFFF7F00900A00204948000008B5FFF709
:104C30005DFE024B1B68C01A08BD00BF900A002031
:104C400010B5084C012363601120FDF7CDFC064B25
:104C5000C4F80833C4F84833044B4FF40032C3F8A7
:104C6000802110BD0010014003000F0000E100E0B2
:104C70007FB5FCF7DFFE074B05930223049306483C
:104C8000002304AA4FF48251FCF7B8FF0020FEF77E
:104C900041F900BFFBB900009CA800004FF0805311
:104CA000D3F83021082A06D1D3F83431052B02D8A5
:104CB000024AD05C70470020704700BF1EBA000057
:104CC000024AD2F80034002BFBD0704700E00140CC
:104CD00010B54FF08053D3F83021082A4ED14FF051
:104CE00080420021C2F80C11C2F81011C2F8381528
:104CF00002F54042D3F80414C2F82015D3F8081482
:104D0000C2F82415D3F80C14C2F82815D3F81014DF
:104D1000C2F82C15D3F81414C2F83015D3F81814AF
:104D2000C2F83415D3F81C14C2F84015D3F8201477
:104D3000C2F84415D3F82414C2F84815D3F828143F
:104D4000C2F84C15D3F82C14C2F85015D3F830140F
:104D5000C2F85415D3F83414C2F86015D3F83814D7
:104D6000C2F86415D3F83C14C2F86815D3F840149F
:104D7000C2F86C15D3F84434C2F87035FFF78EFFD3
:104D800018B13A4B3A4AC3F88C26FFF787FF18B19F
:104D9000384BFB22C3F81825FFF780FF70B14FF0A6
:104DA00080414FF08053D1F8E42ED3F8583222F0EE
:104DB0000F0203F00F031343C1F8E43EFFF76EFF49
:104DC00020B12D4B4FF40072C3F840264FF08053B2
:104DD000D3F83031082B1AD14FF08043D3F8002498
:104DE000D20744BF6FF00102C3F800244FF0805394
:104DF000D3F83431052B02D8204AD35C3BB14FF0B5
:104E00001023D3F808224FF08043C3F858254FF001
:104E10001023D3F80022002A03DBD3F80432002B3E
:104E200022DA174901234FF01020C1F8043512246B
:104E3000FFF746FFC0F80042FFF742FFC0F8044208
:104E4000FFF73EFF0023C1F80435FFF739FFBFF33A
:104E50004F8F0C490C4BCA6802F4E0621343CB60DD
:104E6000BFF34F8F00BFFDE710BD00BF00500040F3
:104E70004881030000F000400090024018BA000092
:104E800000E0014000ED00E00400FA0530B50468E0
:104E9000CCB1BFF35B8FB4FA84F3C3F11F03DBB271
:104EA00001229A4024EA020250E8005FA54204D1A0
:104EB00040E8002CBCF1000FF6D1BFF35B8FE6D1C8
:104EC00002480B7030BD0248FCE700BF0000AD0B8C
:104ED0000200AD0B10B50368CB40DB0714D40123EF
:104EE0008B400268BFF35B8F43EA020150E8004F3A
:104EF000944204D140E8001CBCF1000FF6D1BFF38E
:104F00005B8FEED1014810BD0148FCE70000AD0BFE
:104F10000400AD0B014BC3F80405704700F00140DD
:104F2000F7B5044618B1012823D003B0F0BD4FF007
:104F300080430222C3F80823C3F80401D3F80421F4
:104F40000122DA60064601238DF8073042F210751F
:104F50004FF08047D4B1012CE7D1D7F80C3403F4DB
:104F60008033AEBB83B3012004F077FE013DF4D162
:104F70002AE04FF080430022C3F80803C3F8002161
:104F8000D3F8002158600DF10706DCE7D7F8183494
:104F900003F480333EB9002BC7D0012004F05DFE3E
:104FA000013DF3D1C1E7D7F8182402F003023260C3
:104FB000002BBAD09DF80700012803D104F04DFE64
:104FC000013DC7D1012CB0D1054B00225A71ACE78D
:104FD000D7F80C2402F001023270002BEAD1F3E77B
:104FE00098130020054B1A792AB99A71012218608A
:104FF0009A80034870470348704700BF9813002009
:105000000000AD0B0C00AD0B4FF08043D3F80C1437
:10501000D3F80C24C80319D5D10717D5D3F8182411
:10502000D20313D50B498A7902F0FF0082B9C3F885
:105030000C01D3F80C2108480822C3F804230122EC
:105040008A710221C3F8341C1A6170470348704703
:1050500003487047981300200000AD0B0500AD0B0E
:105060000B00AD0B10B54FF08043D3F800216AB1AF
:105070000022C3F80021D3F800210122C3F808233D
:10508000184B587910B95A711B6898474FF08043F4
:10509000D3F804215AB10022C3F80421D3F8042123
:1050A0000222C3F808230F4B01201B6898474FF0DA
:1050B0008043D3F80C21A2B1D3F80423120710D5F2
:1050C0000022C3F8342CC3F80C21D3F80C110821AA
:1050D000C3F80813034B9A71BDE810401B68042005
:1050E000184710BD98130020036803F01F025B09E6
:1050F000026004D0012B034818BF002070474FF016
:10510000A040704700030050034A430900F01F000D
:10511000D35C1844C0B270472FBA000008B5FFF73F
:10512000F3FF034B083033F81000C0F3401008BD04
:105130008C00002008B5FFF7E7FF034B083033F879
:105140001000C0F3400008BD8C00002008B5FFF738
:10515000DBFF034B083033F81000400B08BD00BFE5
:105160008C00002070B50546FFF7CEFF0C4C0830D0
:105170000E4634F81030DA0508D5C3F3432304EBA8
:10518000C302284654F8333052689847A3682BB1BD
:10519000E26831462846BDE87040184770BD00BF40
:1051A0008C00002010B5FFF7AFFF124A083032F82C
:1051B0001030D9051CD5C3F3432123F4F85322F84A
:1051C000103002F10E04002034F8023F13F4807F07
:1051D00003D0C3F3432399420AD001303028F3D1DE
:1051E000002342F831300448BDE81040FFF772BE9A
:1051F00010BD00BF8C00002000010020F0B501466A
:10520000104A114C00200125064602F14043A3F547
:10521000C2439B0805FA03F3194204D0176817B17B
:105220001660176818430432A242EED1074BD3F838
:105230007C2132B10022C3F87C21D3F87C3140F0CC
:105240000040F0BD0061004020610040006000406F
:105250002DE9F04385B0054690461E46FFF754FF02
:10526000044609B32846FFF765FF18B12846FFF743
:1052700055FF38BB0023CDE900338DF80E308DF893
:105280000F300DF10F020B4628460DF10E0104F010
:1052900037FD4A4A04F1080132F8113023F00203C5
:1052A00043F0010322F81130B8F1000F31D0284645
:1052B00098F80070D8F80490FFF73CFF20B1B9F1DE
:1052C000000F1BD03E4826E03C4B04F1080C33F89D
:1052D0001C1021F02001C904C90C23F81C10B9F1DD
:1052E000000F0BD0032FEDD8D8F8042092F800E07F
:1052F000A7B9344B0EF5A27E43F82E702F4A04F165
:10530000080132F8113023F01C0343EA870322F826
:1053100011304EBB2C4805B0BDE8F0834FEA8E0239
:1053200002F1804202F5C04241EA4E31D2F8100546
:1053300020F00300C2F81005D2F8100520F44F3019
:1053400020F44070C2F81005D2F81085280200F44D
:105350007C5040EA080040EA074041F0200123F871
:105360001C10C2F81005C9E7D6E900762846FFF7F9
:1053700019FF002FCED0114DD5E90023974201D15E
:105380009E4218D011480DF10F01FFF77FFD0E4B23
:105390009842C0D19DF80F2045F8327005EBC2034A
:1053A00008345E6035F8143043EA422343F48073D6
:1053B00025F81430AEE70022EEE700BF8C00002095
:1053C0000400AD0B006000400000AD0B00010020A8
:1053D0002DE9FF4104461646FFF796FE054631B318
:1053E0002046FFF7A7FE20B92046FFF797FE0028CA
:1053F00060D1314F05F1080837F8183013F01C0F51
:1054000002D04B78012B55D001238DF80F300023AB
:10541000CDE900134A1C8B1C20460DF10F0104F04E
:105420006FFC37F8183043F0030327F818301EB923
:10543000224804B0BDE8F0812046FFF77BFEC8B3E8
:105440001D4F96F800C005F10800614637F810506E
:10545000890025F0200501F18041ED0401F5C041EE
:10546000ED0C27F810500023C1F810357278002A8F
:10547000DED0D1F81035B67823F4991323F4F8531D
:10548000C1F8103512042302D1F810E502F44032BD
:1054900003F47C531343320543EA0E0302F48012F3
:1054A00045EA4C35134345F0200527F81050C1F864
:1054B0001035BDE70248BCE78C0000200000AD0BB2
:1054C0000400AD0B014BC3E9020170478C000020C2
:1054D00010B50446FFF722FE50B12046FFF714FE38
:1054E000044B083033F8103003485B0B0B7010BDD1
:1054F0000248FCE78C0000200000AD0B0400AD0B5F
:1055000070B50F4C94F87860BEB90E4D60223146EC
:1055100004F1100005F030F8C5F87C610620D5F8DC
:105520007C31FDF753F84FF00043C5F804330648CB
:10553000012384F87830636770BD0448FCE700BF3E
:105540008C000020006000400000AD0B0500AD0B9A
:10555000034B93F87800003818BF0120704700BF54
:105560008C00002001460148FFF7B4BCFC0000207D
:1055700001460148FFF78ABCFC00002037B504460D
:10558000FFF7CCFD08B32046FFF7D4FD0546E0B990
:105590002046FFF7DBFD03B29B0003F1804202F5DA
:1055A000C24203F1804303F5C04315601268D3F88B
:1055B000102542F00102C3F8102521B1144A01233D
:1055C0008340C2F8043303B030BD2046FFF79CFD92
:1055D000104B083033F81030C3F38203042B12D081
:1055E000052B12D001A80194FFF77EFD019BD0F896
:1055F0001015D94001F001010231204603B0BDE889
:10560000304004F0C6BB0321F7E70221F5E700BFF5
:10561000006000408C00002010B50446FFF77EFDBE
:10562000C0B12046FFF786FDA0B92046FFF78EFDEA
:105630000B4A01238340C2F8083303B29B0003F1F5
:10564000804303F5C043D3F8102522F00302C3F8CA
:10565000102510BD20460021BDE8104004F099BB84
:105660000060004073B50446FFF74EFD184E00F190
:10567000080536F81530DB0727D52046FFF7CCFFA5
:105680002046FFF74BFD40B12046FFF75FFD114B71
:1056900000F5A270002243F820202046FFF782FD8B
:1056A000002301A826F815300194FFF71DFD019B8A
:1056B00000EB8300084BD0F80027134043F00203AF
:1056C000C0F80037054802B070BD0548FBE700BFD1
:1056D0008C00002000600040F0F8FCFF0000AD0BE3
:1056E0000400AD0B2DE9F04F644BD3F80403C0B2B6
:1056F00085B040F00040FFF781FD051E80F2A180DB
:105700004FF0A043D3F820250292C3F82025D3F808
:1057100020280392C3F820280DF108084FF0000953
:10572000574B09EB030B4FE093FAA3FA9BF80040A9
:10573000BAFA8AFA4AEA44142046FFF7E5FC514BCC
:10574000019408304FEADA0233F810700AF00703C8
:105750000120984018F8023023EA000308F80230CC
:1057600001A8FFF7C1FC019B03F5E073B90850F8ED
:105770002330C7F38206C3F3014A4B0737462FD5C0
:1057800020463146FFF7EEFC01A80194FFF7ACFC80
:10579000019B03F5E0735FFA8AFA50F82330C3F3F4
:1057A00001439A4507D10021204604F0F2FA514600
:1057B000204604F0EEFA01A80194FFF795FC019A47
:1057C00001239340C0F82035D8F80030002BABD12E
:1057D00008F10408B9F1000F1DD14FF001099FE74E
:1057E000BAF1020F0CD10321204604F0D2FA06F0E0
:1057F0000503012BDFD139462046FFF7B3FCDAE77A
:105800000221204604F0C5FA032EF4D0BAF1030FAA
:10581000D1D1022EEEE74FF00040FFF7EFFC4FF042
:10582000A0421949D2F820350293C2F82035D1F8A8
:10583000202503921343C1F820257FF46DAF25F096
:105840000045012415B905B0BDE8F08F95FAA5F320
:10585000B3FA83F304FA03F29B0003F1804303F5E8
:10586000C04325EA0205D3F81005D3F81015C0F39C
:105870000520C1F30141FFF775FCE3E7006000403C
:105880003FBA00008C000020000300500146014890
:10589000FFF7FCBA0801002030B500F01F044009F2
:1058A00011D0012812D10C4800EB84001B02D0F863
:1058B00000570A4C43EA82022C4042EA410121434C
:1058C000C0F8001730BD4FF0A040EDE704F5E074DC
:1058D000002353F82430FFDE00030050F0F8FCFFF3
:1058E000CB7B10B433B9D1E900420368C3F8084553
:1058F000C3F80C2503688A68C3F8242503793C2281
:105900005343054AD3582BB1006810BC40F307300D
:10591000FCF75CBE10BC7047A013002013B53B4BD6
:1059200001930023C0F80431D0F80421C0F82431D9
:10593000D0F82421C0F81C31D0F81C21C0F808315F
:10594000D0F80821C0F800324B6381F82F300123D2
:10595000036291F82D209A4218BF83604B6B8A6ACC
:10596000934204460ED24A6AD35CC0F81C350B68D9
:1059700003B340F286238B608B682548C4F8043358
:1059800002B010BD91F82C3013B10123C361EEE7D2
:105990000B6A13F0400F4FF0010316BFC361436160
:1059A00081F82D30E3E7204604F002FA28B1019B8C
:1059B000013B0193019B002BF5DC91F82F305BB983
:1059C0001348019B002BDBDC0023C4F800350523C2
:1059D0001048C4F80035D3E7D4F8C434C4F8C4344C
:1059E0008BB10D4A0B4813F0010F18BF104613F08E
:1059F000020F02F1010218BF104613F0040F074B0B
:105A000018BF1846DDE70348DBE700BFA0860100AA
:105A10000000AD0B0100AD0B0000AE0B0200AE0BA1
:105A200013B5334B01930023C0F80431D0F804219F
:105A3000C0F82431D0F82421C0F81C31D0F81C2142
:105A4000C0F80831D0F808214B6381F82F308B6AF9
:105A5000012B044617D10B6A5B0614D40223C4F849
:105A600000320123236291F82D20022A18BF2360FF
:105A70000B688BB140F286238B608B681D48C4F89D
:105A8000043302B010BD0123E9E7204604F090F989
:105A900028B1019B013B0193019B002BF5DC91F8A0
:105AA0002F305BB91348019B002BEADC0023C4F8BC
:105AB000003505231048C4F80035E2E7D4F8C434B3
:105AC000C4F8C4348BB10D4A0B4813F0010F18BF52
:105AD000104613F0020F02F1010218BF104613F036
